{
	"smart_cert.sol": {
		"CertificateAuthority": {
			"abi": [
				{
					"anonymous": false,
					"inputs": [
						{
							"indexed": true,
							"internalType": "address",
							"name": "user",
							"type": "address"
						},
						{
							"indexed": false,
							"internalType": "string",
							"name": "certHash",
							"type": "string"
						}
					],
					"name": "CertificateIssued",
					"type": "event"
				},
				{
					"anonymous": false,
					"inputs": [
						{
							"indexed": true,
							"internalType": "address",
							"name": "user",
							"type": "address"
						}
					],
					"name": "CertificateRevoked",
					"type": "event"
				},
				{
					"inputs": [
						{
							"internalType": "address",
							"name": "",
							"type": "address"
						}
					],
					"name": "certificates",
					"outputs": [
						{
							"internalType": "string",
							"name": "certHash",
							"type": "string"
						},
						{
							"internalType": "string",
							"name": "certPem",
							"type": "string"
						},
						{
							"internalType": "bool",
							"name": "isRevoked",
							"type": "bool"
						}
					],
					"stateMutability": "view",
					"type": "function"
				},
				{
					"inputs": [
						{
							"internalType": "address",
							"name": "user",
							"type": "address"
						}
					],
					"name": "getCertificateData",
					"outputs": [
						{
							"internalType": "string",
							"name": "",
							"type": "string"
						},
						{
							"internalType": "bool",
							"name": "",
							"type": "bool"
						}
					],
					"stateMutability": "view",
					"type": "function"
				},
				{
					"inputs": [
						{
							"internalType": "address",
							"name": "user",
							"type": "address"
						},
						{
							"internalType": "string",
							"name": "certHash",
							"type": "string"
						},
						{
							"internalType": "string",
							"name": "certPem",
							"type": "string"
						}
					],
					"name": "issueCertificate",
					"outputs": [],
					"stateMutability": "nonpayable",
					"type": "function"
				},
				{
					"inputs": [
						{
							"internalType": "address",
							"name": "user",
							"type": "address"
						}
					],
					"name": "revokeCertificate",
					"outputs": [],
					"stateMutability": "nonpayable",
					"type": "function"
				},
				{
					"inputs": [
						{
							"internalType": "address",
							"name": "user",
							"type": "address"
						}
					],
					"name": "verifyCertificate",
					"outputs": [
						{
							"internalType": "bool",
							"name": "",
							"type": "bool"
						}
					],
					"stateMutability": "view",
					"type": "function"
				}
			],
			"devdoc": {
				"kind": "dev",
				"methods": {},
				"version": 1
			},
			"evm": {
				"assembly": "    /* \"smart_cert.sol\":60:1565  contract CertificateAuthority {... */\n  mstore(0x40, 0x80)\n  callvalue\n  dup1\n  iszero\n  tag_1\n  jumpi\n  0x00\n  dup1\n  revert\ntag_1:\n  pop\n  dataSize(sub_0)\n  dup1\n  dataOffset(sub_0)\n  0x00\n  codecopy\n  0x00\n  return\nstop\n\nsub_0: assembly {\n        /* \"smart_cert.sol\":60:1565  contract CertificateAuthority {... */\n      mstore(0x40, 0x80)\n      callvalue\n      dup1\n      iszero\n      tag_1\n      jumpi\n      0x00\n      dup1\n      revert\n    tag_1:\n      pop\n      jumpi(tag_2, lt(calldatasize, 0x04))\n      shr(0xe0, calldataload(0x00))\n      dup1\n      0x16e526\n      eq\n      tag_3\n      jumpi\n      dup1\n      0x5f893bfa\n      eq\n      tag_4\n      jumpi\n      dup1\n      0x6b9afc90\n      eq\n      tag_5\n      jumpi\n      dup1\n      0xc3be3ce1\n      eq\n      tag_6\n      jumpi\n      dup1\n      0xe98ac4d8\n      eq\n      tag_7\n      jumpi\n    tag_2:\n      0x00\n      dup1\n      revert\n        /* \"smart_cert.sol\":282:333  mapping(address => Certificate) public certificates */\n    tag_3:\n      tag_8\n      0x04\n      dup1\n      calldatasize\n      sub\n      dup2\n      add\n      swap1\n      tag_9\n      swap2\n      swap1\n      tag_10\n      jump\t// in\n    tag_9:\n      tag_11\n      jump\t// in\n    tag_8:\n      mload(0x40)\n      tag_12\n      swap4\n      swap3\n      swap2\n      swap1\n      tag_13\n      jump\t// in\n    tag_12:\n      mload(0x40)\n      dup1\n      swap2\n      sub\n      swap1\n      return\n        /* \"smart_cert.sol\":948:1170  function revokeCertificate(address user) public {... */\n    tag_4:\n      tag_14\n      0x04\n      dup1\n      calldatasize\n      sub\n      dup2\n      add\n      swap1\n      tag_15\n      swap2\n      swap1\n      tag_10\n      jump\t// in\n    tag_15:\n      tag_16\n      jump\t// in\n    tag_14:\n      stop\n        /* \"smart_cert.sol\":1219:1342  function verifyCertificate(address user) public view returns (bool) {... */\n    tag_5:\n      tag_17\n      0x04\n      dup1\n      calldatasize\n      sub\n      dup2\n      add\n      swap1\n      tag_18\n      swap2\n      swap1\n      tag_10\n      jump\t// in\n    tag_18:\n      tag_19\n      jump\t// in\n    tag_17:\n      mload(0x40)\n      tag_20\n      swap2\n      swap1\n      tag_21\n      jump\t// in\n    tag_20:\n      mload(0x40)\n      dup1\n      swap2\n      sub\n      swap1\n      return\n        /* \"smart_cert.sol\":1391:1562  function getCertificateData(address user) external view returns (string memory, bool) {... */\n    tag_6:\n      tag_22\n      0x04\n      dup1\n      calldatasize\n      sub\n      dup2\n      add\n      swap1\n      tag_23\n      swap2\n      swap1\n      tag_10\n      jump\t// in\n    tag_23:\n      tag_24\n      jump\t// in\n    tag_22:\n      mload(0x40)\n      tag_25\n      swap3\n      swap2\n      swap1\n      tag_26\n      jump\t// in\n    tag_25:\n      mload(0x40)\n      dup1\n      swap2\n      sub\n      swap1\n      return\n        /* \"smart_cert.sol\":580:899  function issueCertificate(address user, string memory certHash, string memory certPem) public {... */\n    tag_7:\n      tag_27\n      0x04\n      dup1\n      calldatasize\n      sub\n      dup2\n      add\n      swap1\n      tag_28\n      swap2\n      swap1\n      tag_29\n      jump\t// in\n    tag_28:\n      tag_30\n      jump\t// in\n    tag_27:\n      stop\n        /* \"smart_cert.sol\":282:333  mapping(address => Certificate) public certificates */\n    tag_11:\n      mstore(0x20, 0x00)\n      dup1\n      0x00\n      mstore\n      keccak256(0x00, 0x40)\n      0x00\n      swap2\n      pop\n      swap1\n      pop\n      dup1\n      0x00\n      add\n      dup1\n      sload\n      tag_31\n      swap1\n      tag_32\n      jump\t// in\n    tag_31:\n      dup1\n      0x1f\n      add\n      0x20\n      dup1\n      swap2\n      div\n      mul\n      0x20\n      add\n      mload(0x40)\n      swap1\n      dup2\n      add\n      0x40\n      mstore\n      dup1\n      swap3\n      swap2\n      swap1\n      dup2\n      dup2\n      mstore\n      0x20\n      add\n      dup3\n      dup1\n      sload\n      tag_33\n      swap1\n      tag_32\n      jump\t// in\n    tag_33:\n      dup1\n      iszero\n      tag_34\n      jumpi\n      dup1\n      0x1f\n      lt\n      tag_35\n      jumpi\n      0x0100\n      dup1\n      dup4\n      sload\n      div\n      mul\n      dup4\n      mstore\n      swap2\n      0x20\n      add\n      swap2\n      jump(tag_34)\n    tag_35:\n      dup3\n      add\n      swap2\n      swap1\n      0x00\n      mstore\n      keccak256(0x00, 0x20)\n      swap1\n    tag_36:\n      dup2\n      sload\n      dup2\n      mstore\n      swap1\n      0x01\n      add\n      swap1\n      0x20\n      add\n      dup1\n      dup4\n      gt\n      tag_36\n      jumpi\n      dup3\n      swap1\n      sub\n      0x1f\n      and\n      dup3\n      add\n      swap2\n    tag_34:\n      pop\n      pop\n      pop\n      pop\n      pop\n      swap1\n      dup1\n      0x01\n      add\n      dup1\n      sload\n      tag_37\n      swap1\n      tag_32\n      jump\t// in\n    tag_37:\n      dup1\n      0x1f\n      add\n      0x20\n      dup1\n      swap2\n      div\n      mul\n      0x20\n      add\n      mload(0x40)\n      swap1\n      dup2\n      add\n      0x40\n      mstore\n      dup1\n      swap3\n      swap2\n      swap1\n      dup2\n      dup2\n      mstore\n      0x20\n      add\n      dup3\n      dup1\n      sload\n      tag_38\n      swap1\n      tag_32\n      jump\t// in\n    tag_38:\n      dup1\n      iszero\n      tag_39\n      jumpi\n      dup1\n      0x1f\n      lt\n      tag_40\n      jumpi\n      0x0100\n      dup1\n      dup4\n      sload\n      div\n      mul\n      dup4\n      mstore\n      swap2\n      0x20\n      add\n      swap2\n      jump(tag_39)\n    tag_40:\n      dup3\n      add\n      swap2\n      swap1\n      0x00\n      mstore\n      keccak256(0x00, 0x20)\n      swap1\n    tag_41:\n      dup2\n      sload\n      dup2\n      mstore\n      swap1\n      0x01\n      add\n      swap1\n      0x20\n      add\n      dup1\n      dup4\n      gt\n      tag_41\n      jumpi\n      dup3\n      swap1\n      sub\n      0x1f\n      and\n      dup3\n      add\n      swap2\n    tag_39:\n      pop\n      pop\n      pop\n      pop\n      pop\n      swap1\n      dup1\n      0x02\n      add\n      0x00\n      swap1\n      sload\n      swap1\n      0x0100\n      exp\n      swap1\n      div\n      0xff\n      and\n      swap1\n      pop\n      dup4\n      jump\t// out\n        /* \"smart_cert.sol\":948:1170  function revokeCertificate(address user) public {... */\n    tag_16:\n        /* \"smart_cert.sol\":1016:1028  certificates */\n      0x00\n        /* \"smart_cert.sol\":1016:1034  certificates[user] */\n      dup1\n        /* \"smart_cert.sol\":1029:1033  user */\n      dup3\n        /* \"smart_cert.sol\":1016:1034  certificates[user] */\n      0xffffffffffffffffffffffffffffffffffffffff\n      and\n      0xffffffffffffffffffffffffffffffffffffffff\n      and\n      dup2\n      mstore\n      0x20\n      add\n      swap1\n      dup2\n      mstore\n      0x20\n      add\n      0x00\n      keccak256\n        /* \"smart_cert.sol\":1016:1044  certificates[user].isRevoked */\n      0x02\n      add\n      0x00\n      swap1\n      sload\n      swap1\n      0x0100\n      exp\n      swap1\n      div\n      0xff\n      and\n        /* \"smart_cert.sol\":1015:1044  !certificates[user].isRevoked */\n      iszero\n        /* \"smart_cert.sol\":1007:1076  require(!certificates[user].isRevoked, \"Certificate already revoked\") */\n      tag_43\n      jumpi\n      mload(0x40)\n      0x08c379a000000000000000000000000000000000000000000000000000000000\n      dup2\n      mstore\n      0x04\n      add\n      tag_44\n      swap1\n      tag_45\n      jump\t// in\n    tag_44:\n      mload(0x40)\n      dup1\n      swap2\n      sub\n      swap1\n      revert\n    tag_43:\n        /* \"smart_cert.sol\":1118:1122  true */\n      0x01\n        /* \"smart_cert.sol\":1087:1099  certificates */\n      0x00\n        /* \"smart_cert.sol\":1087:1105  certificates[user] */\n      dup1\n        /* \"smart_cert.sol\":1100:1104  user */\n      dup4\n        /* \"smart_cert.sol\":1087:1105  certificates[user] */\n      0xffffffffffffffffffffffffffffffffffffffff\n      and\n      0xffffffffffffffffffffffffffffffffffffffff\n      and\n      dup2\n      mstore\n      0x20\n      add\n      swap1\n      dup2\n      mstore\n      0x20\n      add\n      0x00\n      keccak256\n        /* \"smart_cert.sol\":1087:1115  certificates[user].isRevoked */\n      0x02\n      add\n      0x00\n        /* \"smart_cert.sol\":1087:1122  certificates[user].isRevoked = true */\n      0x0100\n      exp\n      dup2\n      sload\n      dup2\n      0xff\n      mul\n      not\n      and\n      swap1\n      dup4\n      iszero\n      iszero\n      mul\n      or\n      swap1\n      sstore\n      pop\n        /* \"smart_cert.sol\":1157:1161  user */\n      dup1\n        /* \"smart_cert.sol\":1138:1162  CertificateRevoked(user) */\n      0xffffffffffffffffffffffffffffffffffffffff\n      and\n      0x1572544b0385aedb556974d7757e2ca8049d2da99a9a5209fa9781c74d5f82c8\n      mload(0x40)\n      mload(0x40)\n      dup1\n      swap2\n      sub\n      swap1\n      log2\n        /* \"smart_cert.sol\":948:1170  function revokeCertificate(address user) public {... */\n      pop\n      jump\t// out\n        /* \"smart_cert.sol\":1219:1342  function verifyCertificate(address user) public view returns (bool) {... */\n    tag_19:\n        /* \"smart_cert.sol\":1281:1285  bool */\n      0x00\n        /* \"smart_cert.sol\":1306:1318  certificates */\n      dup1\n        /* \"smart_cert.sol\":1306:1324  certificates[user] */\n      0x00\n        /* \"smart_cert.sol\":1319:1323  user */\n      dup4\n        /* \"smart_cert.sol\":1306:1324  certificates[user] */\n      0xffffffffffffffffffffffffffffffffffffffff\n      and\n      0xffffffffffffffffffffffffffffffffffffffff\n      and\n      dup2\n      mstore\n      0x20\n      add\n      swap1\n      dup2\n      mstore\n      0x20\n      add\n      0x00\n      keccak256\n        /* \"smart_cert.sol\":1306:1334  certificates[user].isRevoked */\n      0x02\n      add\n      0x00\n      swap1\n      sload\n      swap1\n      0x0100\n      exp\n      swap1\n      div\n      0xff\n      and\n        /* \"smart_cert.sol\":1305:1334  !certificates[user].isRevoked */\n      iszero\n        /* \"smart_cert.sol\":1298:1334  return !certificates[user].isRevoked */\n      swap1\n      pop\n        /* \"smart_cert.sol\":1219:1342  function verifyCertificate(address user) public view returns (bool) {... */\n      swap2\n      swap1\n      pop\n      jump\t// out\n        /* \"smart_cert.sol\":1391:1562  function getCertificateData(address user) external view returns (string memory, bool) {... */\n    tag_24:\n        /* \"smart_cert.sol\":1456:1469  string memory */\n      0x60\n        /* \"smart_cert.sol\":1471:1475  bool */\n      0x00\n        /* \"smart_cert.sol\":1496:1508  certificates */\n      dup1\n        /* \"smart_cert.sol\":1496:1514  certificates[user] */\n      0x00\n        /* \"smart_cert.sol\":1509:1513  user */\n      dup5\n        /* \"smart_cert.sol\":1496:1514  certificates[user] */\n      0xffffffffffffffffffffffffffffffffffffffff\n      and\n      0xffffffffffffffffffffffffffffffffffffffff\n      and\n      dup2\n      mstore\n      0x20\n      add\n      swap1\n      dup2\n      mstore\n      0x20\n      add\n      0x00\n      keccak256\n        /* \"smart_cert.sol\":1496:1523  certificates[user].certHash */\n      0x00\n      add\n        /* \"smart_cert.sol\":1525:1537  certificates */\n      0x00\n        /* \"smart_cert.sol\":1525:1543  certificates[user] */\n      dup1\n        /* \"smart_cert.sol\":1538:1542  user */\n      dup6\n        /* \"smart_cert.sol\":1525:1543  certificates[user] */\n      0xffffffffffffffffffffffffffffffffffffffff\n      and\n      0xffffffffffffffffffffffffffffffffffffffff\n      and\n      dup2\n      mstore\n      0x20\n      add\n      swap1\n      dup2\n      mstore\n      0x20\n      add\n      0x00\n      keccak256\n        /* \"smart_cert.sol\":1525:1553  certificates[user].isRevoked */\n      0x02\n      add\n      0x00\n      swap1\n      sload\n      swap1\n      0x0100\n      exp\n      swap1\n      div\n      0xff\n      and\n        /* \"smart_cert.sol\":1488:1554  return (certificates[user].certHash, certificates[user].isRevoked) */\n      dup2\n      dup1\n      sload\n      tag_48\n      swap1\n      tag_32\n      jump\t// in\n    tag_48:\n      dup1\n      0x1f\n      add\n      0x20\n      dup1\n      swap2\n      div\n      mul\n      0x20\n      add\n      mload(0x40)\n      swap1\n      dup2\n      add\n      0x40\n      mstore\n      dup1\n      swap3\n      swap2\n      swap1\n      dup2\n      dup2\n      mstore\n      0x20\n      add\n      dup3\n      dup1\n      sload\n      tag_49\n      swap1\n      tag_32\n      jump\t// in\n    tag_49:\n      dup1\n      iszero\n      tag_50\n      jumpi\n      dup1\n      0x1f\n      lt\n      tag_51\n      jumpi\n      0x0100\n      dup1\n      dup4\n      sload\n      div\n      mul\n      dup4\n      mstore\n      swap2\n      0x20\n      add\n      swap2\n      jump(tag_50)\n    tag_51:\n      dup3\n      add\n      swap2\n      swap1\n      0x00\n      mstore\n      keccak256(0x00, 0x20)\n      swap1\n    tag_52:\n      dup2\n      sload\n      dup2\n      mstore\n      swap1\n      0x01\n      add\n      swap1\n      0x20\n      add\n      dup1\n      dup4\n      gt\n      tag_52\n      jumpi\n      dup3\n      swap1\n      sub\n      0x1f\n      and\n      dup3\n      add\n      swap2\n    tag_50:\n      pop\n      pop\n      pop\n      pop\n      pop\n      swap2\n      pop\n      swap2\n      pop\n      swap2\n      pop\n        /* \"smart_cert.sol\":1391:1562  function getCertificateData(address user) external view returns (string memory, bool) {... */\n      swap2\n      pop\n      swap2\n      jump\t// out\n        /* \"smart_cert.sol\":580:899  function issueCertificate(address user, string memory certHash, string memory certPem) public {... */\n    tag_30:\n        /* \"smart_cert.sol\":805:842  Certificate(certHash, certPem, false) */\n      mload(0x40)\n      dup1\n      0x60\n      add\n      0x40\n      mstore\n      dup1\n        /* \"smart_cert.sol\":817:825  certHash */\n      dup4\n        /* \"smart_cert.sol\":805:842  Certificate(certHash, certPem, false) */\n      dup2\n      mstore\n      0x20\n      add\n        /* \"smart_cert.sol\":827:834  certPem */\n      dup3\n        /* \"smart_cert.sol\":805:842  Certificate(certHash, certPem, false) */\n      dup2\n      mstore\n      0x20\n      add\n        /* \"smart_cert.sol\":836:841  false */\n      0x00\n        /* \"smart_cert.sol\":805:842  Certificate(certHash, certPem, false) */\n      iszero\n      iszero\n      dup2\n      mstore\n      pop\n        /* \"smart_cert.sol\":784:796  certificates */\n      0x00\n        /* \"smart_cert.sol\":784:802  certificates[user] */\n      dup1\n        /* \"smart_cert.sol\":797:801  user */\n      dup6\n        /* \"smart_cert.sol\":784:802  certificates[user] */\n      0xffffffffffffffffffffffffffffffffffffffff\n      and\n      0xffffffffffffffffffffffffffffffffffffffff\n      and\n      dup2\n      mstore\n      0x20\n      add\n      swap1\n      dup2\n      mstore\n      0x20\n      add\n      0x00\n      keccak256\n        /* \"smart_cert.sol\":784:842  certificates[user] = Certificate(certHash, certPem, false) */\n      0x00\n      dup3\n      add\n      mload\n      dup2\n      0x00\n      add\n      swap1\n      dup2\n      tag_54\n      swap2\n      swap1\n      tag_55\n      jump\t// in\n    tag_54:\n      pop\n      0x20\n      dup3\n      add\n      mload\n      dup2\n      0x01\n      add\n      swap1\n      dup2\n      tag_56\n      swap2\n      swap1\n      tag_55\n      jump\t// in\n    tag_56:\n      pop\n      0x40\n      dup3\n      add\n      mload\n      dup2\n      0x02\n      add\n      exp(0x0100, 0x00)\n      dup2\n      sload\n      dup2\n      0xff\n      mul\n      not\n      and\n      swap1\n      dup4\n      iszero\n      iszero\n      mul\n      or\n      swap1\n      sstore\n      pop\n      swap1\n      pop\n      pop\n        /* \"smart_cert.sol\":876:880  user */\n      dup3\n        /* \"smart_cert.sol\":858:891  CertificateIssued(user, certHash) */\n      0xffffffffffffffffffffffffffffffffffffffff\n      and\n      0x4514a45e6f56567008e790fe2158e66d34e8b8254c060ad061d5702748791479\n        /* \"smart_cert.sol\":882:890  certHash */\n      dup4\n        /* \"smart_cert.sol\":858:891  CertificateIssued(user, certHash) */\n      mload(0x40)\n      tag_57\n      swap2\n      swap1\n      tag_58\n      jump\t// in\n    tag_57:\n      mload(0x40)\n      dup1\n      swap2\n      sub\n      swap1\n      log2\n        /* \"smart_cert.sol\":580:899  function issueCertificate(address user, string memory certHash, string memory certPem) public {... */\n      pop\n      pop\n      pop\n      jump\t// out\n        /* \"#utility.yul\":7:82   */\n    tag_59:\n        /* \"#utility.yul\":40:46   */\n      0x00\n        /* \"#utility.yul\":73:75   */\n      0x40\n        /* \"#utility.yul\":67:76   */\n      mload\n        /* \"#utility.yul\":57:76   */\n      swap1\n      pop\n        /* \"#utility.yul\":7:82   */\n      swap1\n      jump\t// out\n        /* \"#utility.yul\":88:205   */\n    tag_60:\n        /* \"#utility.yul\":197:198   */\n      0x00\n        /* \"#utility.yul\":194:195   */\n      dup1\n        /* \"#utility.yul\":187:199   */\n      revert\n        /* \"#utility.yul\":211:328   */\n    tag_61:\n        /* \"#utility.yul\":320:321   */\n      0x00\n        /* \"#utility.yul\":317:318   */\n      dup1\n        /* \"#utility.yul\":310:322   */\n      revert\n        /* \"#utility.yul\":334:460   */\n    tag_62:\n        /* \"#utility.yul\":371:378   */\n      0x00\n        /* \"#utility.yul\":411:453   */\n      0xffffffffffffffffffffffffffffffffffffffff\n        /* \"#utility.yul\":404:409   */\n      dup3\n        /* \"#utility.yul\":400:454   */\n      and\n        /* \"#utility.yul\":389:454   */\n      swap1\n      pop\n        /* \"#utility.yul\":334:460   */\n      swap2\n      swap1\n      pop\n      jump\t// out\n        /* \"#utility.yul\":466:562   */\n    tag_63:\n        /* \"#utility.yul\":503:510   */\n      0x00\n        /* \"#utility.yul\":532:556   */\n      tag_107\n        /* \"#utility.yul\":550:555   */\n      dup3\n        /* \"#utility.yul\":532:556   */\n      tag_62\n      jump\t// in\n    tag_107:\n        /* \"#utility.yul\":521:556   */\n      swap1\n      pop\n        /* \"#utility.yul\":466:562   */\n      swap2\n      swap1\n      pop\n      jump\t// out\n        /* \"#utility.yul\":568:690   */\n    tag_64:\n        /* \"#utility.yul\":641:665   */\n      tag_109\n        /* \"#utility.yul\":659:664   */\n      dup2\n        /* \"#utility.yul\":641:665   */\n      tag_63\n      jump\t// in\n    tag_109:\n        /* \"#utility.yul\":634:639   */\n      dup2\n        /* \"#utility.yul\":631:666   */\n      eq\n        /* \"#utility.yul\":621:684   */\n      tag_110\n      jumpi\n        /* \"#utility.yul\":680:681   */\n      0x00\n        /* \"#utility.yul\":677:678   */\n      dup1\n        /* \"#utility.yul\":670:682   */\n      revert\n        /* \"#utility.yul\":621:684   */\n    tag_110:\n        /* \"#utility.yul\":568:690   */\n      pop\n      jump\t// out\n        /* \"#utility.yul\":696:835   */\n    tag_65:\n        /* \"#utility.yul\":742:747   */\n      0x00\n        /* \"#utility.yul\":780:786   */\n      dup2\n        /* \"#utility.yul\":767:787   */\n      calldataload\n        /* \"#utility.yul\":758:787   */\n      swap1\n      pop\n        /* \"#utility.yul\":796:829   */\n      tag_112\n        /* \"#utility.yul\":823:828   */\n      dup2\n        /* \"#utility.yul\":796:829   */\n      tag_64\n      jump\t// in\n    tag_112:\n        /* \"#utility.yul\":696:835   */\n      swap3\n      swap2\n      pop\n      pop\n      jump\t// out\n        /* \"#utility.yul\":841:1170   */\n    tag_10:\n        /* \"#utility.yul\":900:906   */\n      0x00\n        /* \"#utility.yul\":949:951   */\n      0x20\n        /* \"#utility.yul\":937:946   */\n      dup3\n        /* \"#utility.yul\":928:935   */\n      dup5\n        /* \"#utility.yul\":924:947   */\n      sub\n        /* \"#utility.yul\":920:952   */\n      slt\n        /* \"#utility.yul\":917:1036   */\n      iszero\n      tag_114\n      jumpi\n        /* \"#utility.yul\":955:1034   */\n      tag_115\n      tag_60\n      jump\t// in\n    tag_115:\n        /* \"#utility.yul\":917:1036   */\n    tag_114:\n        /* \"#utility.yul\":1075:1076   */\n      0x00\n        /* \"#utility.yul\":1100:1153   */\n      tag_116\n        /* \"#utility.yul\":1145:1152   */\n      dup5\n        /* \"#utility.yul\":1136:1142   */\n      dup3\n        /* \"#utility.yul\":1125:1134   */\n      dup6\n        /* \"#utility.yul\":1121:1143   */\n      add\n        /* \"#utility.yul\":1100:1153   */\n      tag_65\n      jump\t// in\n    tag_116:\n        /* \"#utility.yul\":1090:1153   */\n      swap2\n      pop\n        /* \"#utility.yul\":1046:1163   */\n      pop\n        /* \"#utility.yul\":841:1170   */\n      swap3\n      swap2\n      pop\n      pop\n      jump\t// out\n        /* \"#utility.yul\":1176:1275   */\n    tag_66:\n        /* \"#utility.yul\":1228:1234   */\n      0x00\n        /* \"#utility.yul\":1262:1267   */\n      dup2\n        /* \"#utility.yul\":1256:1268   */\n      mload\n        /* \"#utility.yul\":1246:1268   */\n      swap1\n      pop\n        /* \"#utility.yul\":1176:1275   */\n      swap2\n      swap1\n      pop\n      jump\t// out\n        /* \"#utility.yul\":1281:1450   */\n    tag_67:\n        /* \"#utility.yul\":1365:1376   */\n      0x00\n        /* \"#utility.yul\":1399:1405   */\n      dup3\n        /* \"#utility.yul\":1394:1397   */\n      dup3\n        /* \"#utility.yul\":1387:1406   */\n      mstore\n        /* \"#utility.yul\":1439:1443   */\n      0x20\n        /* \"#utility.yul\":1434:1437   */\n      dup3\n        /* \"#utility.yul\":1430:1444   */\n      add\n        /* \"#utility.yul\":1415:1444   */\n      swap1\n      pop\n        /* \"#utility.yul\":1281:1450   */\n      swap3\n      swap2\n      pop\n      pop\n      jump\t// out\n        /* \"#utility.yul\":1456:1595   */\n    tag_68:\n        /* \"#utility.yul\":1545:1551   */\n      dup3\n        /* \"#utility.yul\":1540:1543   */\n      dup2\n        /* \"#utility.yul\":1535:1538   */\n      dup4\n        /* \"#utility.yul\":1529:1552   */\n      mcopy\n        /* \"#utility.yul\":1586:1587   */\n      0x00\n        /* \"#utility.yul\":1577:1583   */\n      dup4\n        /* \"#utility.yul\":1572:1575   */\n      dup4\n        /* \"#utility.yul\":1568:1584   */\n      add\n        /* \"#utility.yul\":1561:1588   */\n      mstore\n        /* \"#utility.yul\":1456:1595   */\n      pop\n      pop\n      pop\n      jump\t// out\n        /* \"#utility.yul\":1601:1703   */\n    tag_69:\n        /* \"#utility.yul\":1642:1648   */\n      0x00\n        /* \"#utility.yul\":1693:1695   */\n      0x1f\n        /* \"#utility.yul\":1689:1696   */\n      not\n        /* \"#utility.yul\":1684:1686   */\n      0x1f\n        /* \"#utility.yul\":1677:1682   */\n      dup4\n        /* \"#utility.yul\":1673:1687   */\n      add\n        /* \"#utility.yul\":1669:1697   */\n      and\n        /* \"#utility.yul\":1659:1697   */\n      swap1\n      pop\n        /* \"#utility.yul\":1601:1703   */\n      swap2\n      swap1\n      pop\n      jump\t// out\n        /* \"#utility.yul\":1709:2086   */\n    tag_70:\n        /* \"#utility.yul\":1797:1800   */\n      0x00\n        /* \"#utility.yul\":1825:1864   */\n      tag_122\n        /* \"#utility.yul\":1858:1863   */\n      dup3\n        /* \"#utility.yul\":1825:1864   */\n      tag_66\n      jump\t// in\n    tag_122:\n        /* \"#utility.yul\":1880:1951   */\n      tag_123\n        /* \"#utility.yul\":1944:1950   */\n      dup2\n        /* \"#utility.yul\":1939:1942   */\n      dup6\n        /* \"#utility.yul\":1880:1951   */\n      tag_67\n      jump\t// in\n    tag_123:\n        /* \"#utility.yul\":1873:1951   */\n      swap4\n      pop\n        /* \"#utility.yul\":1960:2025   */\n      tag_124\n        /* \"#utility.yul\":2018:2024   */\n      dup2\n        /* \"#utility.yul\":2013:2016   */\n      dup6\n        /* \"#utility.yul\":2006:2010   */\n      0x20\n        /* \"#utility.yul\":1999:2004   */\n      dup7\n        /* \"#utility.yul\":1995:2011   */\n      add\n        /* \"#utility.yul\":1960:2025   */\n      tag_68\n      jump\t// in\n    tag_124:\n        /* \"#utility.yul\":2050:2079   */\n      tag_125\n        /* \"#utility.yul\":2072:2078   */\n      dup2\n        /* \"#utility.yul\":2050:2079   */\n      tag_69\n      jump\t// in\n    tag_125:\n        /* \"#utility.yul\":2045:2048   */\n      dup5\n        /* \"#utility.yul\":2041:2080   */\n      add\n        /* \"#utility.yul\":2034:2080   */\n      swap2\n      pop\n        /* \"#utility.yul\":1801:2086   */\n      pop\n        /* \"#utility.yul\":1709:2086   */\n      swap3\n      swap2\n      pop\n      pop\n      jump\t// out\n        /* \"#utility.yul\":2092:2182   */\n    tag_71:\n        /* \"#utility.yul\":2126:2133   */\n      0x00\n        /* \"#utility.yul\":2169:2174   */\n      dup2\n        /* \"#utility.yul\":2162:2175   */\n      iszero\n        /* \"#utility.yul\":2155:2176   */\n      iszero\n        /* \"#utility.yul\":2144:2176   */\n      swap1\n      pop\n        /* \"#utility.yul\":2092:2182   */\n      swap2\n      swap1\n      pop\n      jump\t// out\n        /* \"#utility.yul\":2188:2297   */\n    tag_72:\n        /* \"#utility.yul\":2269:2290   */\n      tag_128\n        /* \"#utility.yul\":2284:2289   */\n      dup2\n        /* \"#utility.yul\":2269:2290   */\n      tag_71\n      jump\t// in\n    tag_128:\n        /* \"#utility.yul\":2264:2267   */\n      dup3\n        /* \"#utility.yul\":2257:2291   */\n      mstore\n        /* \"#utility.yul\":2188:2297   */\n      pop\n      pop\n      jump\t// out\n        /* \"#utility.yul\":2303:2915   */\n    tag_13:\n        /* \"#utility.yul\":2486:2490   */\n      0x00\n        /* \"#utility.yul\":2524:2526   */\n      0x60\n        /* \"#utility.yul\":2513:2522   */\n      dup3\n        /* \"#utility.yul\":2509:2527   */\n      add\n        /* \"#utility.yul\":2501:2527   */\n      swap1\n      pop\n        /* \"#utility.yul\":2573:2582   */\n      dup2\n        /* \"#utility.yul\":2567:2571   */\n      dup2\n        /* \"#utility.yul\":2563:2583   */\n      sub\n        /* \"#utility.yul\":2559:2560   */\n      0x00\n        /* \"#utility.yul\":2548:2557   */\n      dup4\n        /* \"#utility.yul\":2544:2561   */\n      add\n        /* \"#utility.yul\":2537:2584   */\n      mstore\n        /* \"#utility.yul\":2601:2679   */\n      tag_130\n        /* \"#utility.yul\":2674:2678   */\n      dup2\n        /* \"#utility.yul\":2665:2671   */\n      dup7\n        /* \"#utility.yul\":2601:2679   */\n      tag_70\n      jump\t// in\n    tag_130:\n        /* \"#utility.yul\":2593:2679   */\n      swap1\n      pop\n        /* \"#utility.yul\":2726:2735   */\n      dup2\n        /* \"#utility.yul\":2720:2724   */\n      dup2\n        /* \"#utility.yul\":2716:2736   */\n      sub\n        /* \"#utility.yul\":2711:2713   */\n      0x20\n        /* \"#utility.yul\":2700:2709   */\n      dup4\n        /* \"#utility.yul\":2696:2714   */\n      add\n        /* \"#utility.yul\":2689:2737   */\n      mstore\n        /* \"#utility.yul\":2754:2832   */\n      tag_131\n        /* \"#utility.yul\":2827:2831   */\n      dup2\n        /* \"#utility.yul\":2818:2824   */\n      dup6\n        /* \"#utility.yul\":2754:2832   */\n      tag_70\n      jump\t// in\n    tag_131:\n        /* \"#utility.yul\":2746:2832   */\n      swap1\n      pop\n        /* \"#utility.yul\":2842:2908   */\n      tag_132\n        /* \"#utility.yul\":2904:2906   */\n      0x40\n        /* \"#utility.yul\":2893:2902   */\n      dup4\n        /* \"#utility.yul\":2889:2907   */\n      add\n        /* \"#utility.yul\":2880:2886   */\n      dup5\n        /* \"#utility.yul\":2842:2908   */\n      tag_72\n      jump\t// in\n    tag_132:\n        /* \"#utility.yul\":2303:2915   */\n      swap5\n      swap4\n      pop\n      pop\n      pop\n      pop\n      jump\t// out\n        /* \"#utility.yul\":2921:3131   */\n    tag_21:\n        /* \"#utility.yul\":3008:3012   */\n      0x00\n        /* \"#utility.yul\":3046:3048   */\n      0x20\n        /* \"#utility.yul\":3035:3044   */\n      dup3\n        /* \"#utility.yul\":3031:3049   */\n      add\n        /* \"#utility.yul\":3023:3049   */\n      swap1\n      pop\n        /* \"#utility.yul\":3059:3124   */\n      tag_134\n        /* \"#utility.yul\":3121:3122   */\n      0x00\n        /* \"#utility.yul\":3110:3119   */\n      dup4\n        /* \"#utility.yul\":3106:3123   */\n      add\n        /* \"#utility.yul\":3097:3103   */\n      dup5\n        /* \"#utility.yul\":3059:3124   */\n      tag_72\n      jump\t// in\n    tag_134:\n        /* \"#utility.yul\":2921:3131   */\n      swap3\n      swap2\n      pop\n      pop\n      jump\t// out\n        /* \"#utility.yul\":3137:3548   */\n    tag_26:\n        /* \"#utility.yul\":3272:3276   */\n      0x00\n        /* \"#utility.yul\":3310:3312   */\n      0x40\n        /* \"#utility.yul\":3299:3308   */\n      dup3\n        /* \"#utility.yul\":3295:3313   */\n      add\n        /* \"#utility.yul\":3287:3313   */\n      swap1\n      pop\n        /* \"#utility.yul\":3359:3368   */\n      dup2\n        /* \"#utility.yul\":3353:3357   */\n      dup2\n        /* \"#utility.yul\":3349:3369   */\n      sub\n        /* \"#utility.yul\":3345:3346   */\n      0x00\n        /* \"#utility.yul\":3334:3343   */\n      dup4\n        /* \"#utility.yul\":3330:3347   */\n      add\n        /* \"#utility.yul\":3323:3370   */\n      mstore\n        /* \"#utility.yul\":3387:3465   */\n      tag_136\n        /* \"#utility.yul\":3460:3464   */\n      dup2\n        /* \"#utility.yul\":3451:3457   */\n      dup6\n        /* \"#utility.yul\":3387:3465   */\n      tag_70\n      jump\t// in\n    tag_136:\n        /* \"#utility.yul\":3379:3465   */\n      swap1\n      pop\n        /* \"#utility.yul\":3475:3541   */\n      tag_137\n        /* \"#utility.yul\":3537:3539   */\n      0x20\n        /* \"#utility.yul\":3526:3535   */\n      dup4\n        /* \"#utility.yul\":3522:3540   */\n      add\n        /* \"#utility.yul\":3513:3519   */\n      dup5\n        /* \"#utility.yul\":3475:3541   */\n      tag_72\n      jump\t// in\n    tag_137:\n        /* \"#utility.yul\":3137:3548   */\n      swap4\n      swap3\n      pop\n      pop\n      pop\n      jump\t// out\n        /* \"#utility.yul\":3554:3671   */\n    tag_73:\n        /* \"#utility.yul\":3663:3664   */\n      0x00\n        /* \"#utility.yul\":3660:3661   */\n      dup1\n        /* \"#utility.yul\":3653:3665   */\n      revert\n        /* \"#utility.yul\":3677:3794   */\n    tag_74:\n        /* \"#utility.yul\":3786:3787   */\n      0x00\n        /* \"#utility.yul\":3783:3784   */\n      dup1\n        /* \"#utility.yul\":3776:3788   */\n      revert\n        /* \"#utility.yul\":3800:3980   */\n    tag_75:\n        /* \"#utility.yul\":3848:3925   */\n      0x4e487b7100000000000000000000000000000000000000000000000000000000\n        /* \"#utility.yul\":3845:3846   */\n      0x00\n        /* \"#utility.yul\":3838:3926   */\n      mstore\n        /* \"#utility.yul\":3945:3949   */\n      0x41\n        /* \"#utility.yul\":3942:3943   */\n      0x04\n        /* \"#utility.yul\":3935:3950   */\n      mstore\n        /* \"#utility.yul\":3969:3973   */\n      0x24\n        /* \"#utility.yul\":3966:3967   */\n      0x00\n        /* \"#utility.yul\":3959:3974   */\n      revert\n        /* \"#utility.yul\":3986:4267   */\n    tag_76:\n        /* \"#utility.yul\":4069:4096   */\n      tag_142\n        /* \"#utility.yul\":4091:4095   */\n      dup3\n        /* \"#utility.yul\":4069:4096   */\n      tag_69\n      jump\t// in\n    tag_142:\n        /* \"#utility.yul\":4061:4067   */\n      dup2\n        /* \"#utility.yul\":4057:4097   */\n      add\n        /* \"#utility.yul\":4199:4205   */\n      dup2\n        /* \"#utility.yul\":4187:4197   */\n      dup2\n        /* \"#utility.yul\":4184:4206   */\n      lt\n        /* \"#utility.yul\":4163:4181   */\n      0xffffffffffffffff\n        /* \"#utility.yul\":4151:4161   */\n      dup3\n        /* \"#utility.yul\":4148:4182   */\n      gt\n        /* \"#utility.yul\":4145:4207   */\n      or\n        /* \"#utility.yul\":4142:4230   */\n      iszero\n      tag_143\n      jumpi\n        /* \"#utility.yul\":4210:4228   */\n      tag_144\n      tag_75\n      jump\t// in\n    tag_144:\n        /* \"#utility.yul\":4142:4230   */\n    tag_143:\n        /* \"#utility.yul\":4250:4260   */\n      dup1\n        /* \"#utility.yul\":4246:4248   */\n      0x40\n        /* \"#utility.yul\":4239:4261   */\n      mstore\n        /* \"#utility.yul\":4029:4267   */\n      pop\n        /* \"#utility.yul\":3986:4267   */\n      pop\n      pop\n      jump\t// out\n        /* \"#utility.yul\":4273:4402   */\n    tag_77:\n        /* \"#utility.yul\":4307:4313   */\n      0x00\n        /* \"#utility.yul\":4334:4354   */\n      tag_146\n      tag_59\n      jump\t// in\n    tag_146:\n        /* \"#utility.yul\":4324:4354   */\n      swap1\n      pop\n        /* \"#utility.yul\":4363:4396   */\n      tag_147\n        /* \"#utility.yul\":4391:4395   */\n      dup3\n        /* \"#utility.yul\":4383:4389   */\n      dup3\n        /* \"#utility.yul\":4363:4396   */\n      tag_76\n      jump\t// in\n    tag_147:\n        /* \"#utility.yul\":4273:4402   */\n      swap2\n      swap1\n      pop\n      jump\t// out\n        /* \"#utility.yul\":4408:4716   */\n    tag_78:\n        /* \"#utility.yul\":4470:4474   */\n      0x00\n        /* \"#utility.yul\":4560:4578   */\n      0xffffffffffffffff\n        /* \"#utility.yul\":4552:4558   */\n      dup3\n        /* \"#utility.yul\":4549:4579   */\n      gt\n        /* \"#utility.yul\":4546:4602   */\n      iszero\n      tag_149\n      jumpi\n        /* \"#utility.yul\":4582:4600   */\n      tag_150\n      tag_75\n      jump\t// in\n    tag_150:\n        /* \"#utility.yul\":4546:4602   */\n    tag_149:\n        /* \"#utility.yul\":4620:4649   */\n      tag_151\n        /* \"#utility.yul\":4642:4648   */\n      dup3\n        /* \"#utility.yul\":4620:4649   */\n      tag_69\n      jump\t// in\n    tag_151:\n        /* \"#utility.yul\":4612:4649   */\n      swap1\n      pop\n        /* \"#utility.yul\":4704:4708   */\n      0x20\n        /* \"#utility.yul\":4698:4702   */\n      dup2\n        /* \"#utility.yul\":4694:4709   */\n      add\n        /* \"#utility.yul\":4686:4709   */\n      swap1\n      pop\n        /* \"#utility.yul\":4408:4716   */\n      swap2\n      swap1\n      pop\n      jump\t// out\n        /* \"#utility.yul\":4722:4870   */\n    tag_79:\n        /* \"#utility.yul\":4820:4826   */\n      dup3\n        /* \"#utility.yul\":4815:4818   */\n      dup2\n        /* \"#utility.yul\":4810:4813   */\n      dup4\n        /* \"#utility.yul\":4797:4827   */\n      calldatacopy\n        /* \"#utility.yul\":4861:4862   */\n      0x00\n        /* \"#utility.yul\":4852:4858   */\n      dup4\n        /* \"#utility.yul\":4847:4850   */\n      dup4\n        /* \"#utility.yul\":4843:4859   */\n      add\n        /* \"#utility.yul\":4836:4863   */\n      mstore\n        /* \"#utility.yul\":4722:4870   */\n      pop\n      pop\n      pop\n      jump\t// out\n        /* \"#utility.yul\":4876:5301   */\n    tag_80:\n        /* \"#utility.yul\":4954:4959   */\n      0x00\n        /* \"#utility.yul\":4979:5045   */\n      tag_154\n        /* \"#utility.yul\":4995:5044   */\n      tag_155\n        /* \"#utility.yul\":5037:5043   */\n      dup5\n        /* \"#utility.yul\":4995:5044   */\n      tag_78\n      jump\t// in\n    tag_155:\n        /* \"#utility.yul\":4979:5045   */\n      tag_77\n      jump\t// in\n    tag_154:\n        /* \"#utility.yul\":4970:5045   */\n      swap1\n      pop\n        /* \"#utility.yul\":5068:5074   */\n      dup3\n        /* \"#utility.yul\":5061:5066   */\n      dup2\n        /* \"#utility.yul\":5054:5075   */\n      mstore\n        /* \"#utility.yul\":5106:5110   */\n      0x20\n        /* \"#utility.yul\":5099:5104   */\n      dup2\n        /* \"#utility.yul\":5095:5111   */\n      add\n        /* \"#utility.yul\":5144:5147   */\n      dup5\n        /* \"#utility.yul\":5135:5141   */\n      dup5\n        /* \"#utility.yul\":5130:5133   */\n      dup5\n        /* \"#utility.yul\":5126:5142   */\n      add\n        /* \"#utility.yul\":5123:5148   */\n      gt\n        /* \"#utility.yul\":5120:5232   */\n      iszero\n      tag_156\n      jumpi\n        /* \"#utility.yul\":5151:5230   */\n      tag_157\n      tag_74\n      jump\t// in\n    tag_157:\n        /* \"#utility.yul\":5120:5232   */\n    tag_156:\n        /* \"#utility.yul\":5241:5295   */\n      tag_158\n        /* \"#utility.yul\":5288:5294   */\n      dup5\n        /* \"#utility.yul\":5283:5286   */\n      dup3\n        /* \"#utility.yul\":5278:5281   */\n      dup6\n        /* \"#utility.yul\":5241:5295   */\n      tag_79\n      jump\t// in\n    tag_158:\n        /* \"#utility.yul\":4960:5301   */\n      pop\n        /* \"#utility.yul\":4876:5301   */\n      swap4\n      swap3\n      pop\n      pop\n      pop\n      jump\t// out\n        /* \"#utility.yul\":5321:5661   */\n    tag_81:\n        /* \"#utility.yul\":5377:5382   */\n      0x00\n        /* \"#utility.yul\":5426:5429   */\n      dup3\n        /* \"#utility.yul\":5419:5423   */\n      0x1f\n        /* \"#utility.yul\":5411:5417   */\n      dup4\n        /* \"#utility.yul\":5407:5424   */\n      add\n        /* \"#utility.yul\":5403:5430   */\n      slt\n        /* \"#utility.yul\":5393:5515   */\n      tag_160\n      jumpi\n        /* \"#utility.yul\":5434:5513   */\n      tag_161\n      tag_73\n      jump\t// in\n    tag_161:\n        /* \"#utility.yul\":5393:5515   */\n    tag_160:\n        /* \"#utility.yul\":5551:5557   */\n      dup2\n        /* \"#utility.yul\":5538:5558   */\n      calldataload\n        /* \"#utility.yul\":5576:5655   */\n      tag_162\n        /* \"#utility.yul\":5651:5654   */\n      dup5\n        /* \"#utility.yul\":5643:5649   */\n      dup3\n        /* \"#utility.yul\":5636:5640   */\n      0x20\n        /* \"#utility.yul\":5628:5634   */\n      dup7\n        /* \"#utility.yul\":5624:5641   */\n      add\n        /* \"#utility.yul\":5576:5655   */\n      tag_80\n      jump\t// in\n    tag_162:\n        /* \"#utility.yul\":5567:5655   */\n      swap2\n      pop\n        /* \"#utility.yul\":5383:5661   */\n      pop\n        /* \"#utility.yul\":5321:5661   */\n      swap3\n      swap2\n      pop\n      pop\n      jump\t// out\n        /* \"#utility.yul\":5667:6646   */\n    tag_29:\n        /* \"#utility.yul\":5764:5770   */\n      0x00\n        /* \"#utility.yul\":5772:5778   */\n      dup1\n        /* \"#utility.yul\":5780:5786   */\n      0x00\n        /* \"#utility.yul\":5829:5831   */\n      0x60\n        /* \"#utility.yul\":5817:5826   */\n      dup5\n        /* \"#utility.yul\":5808:5815   */\n      dup7\n        /* \"#utility.yul\":5804:5827   */\n      sub\n        /* \"#utility.yul\":5800:5832   */\n      slt\n        /* \"#utility.yul\":5797:5916   */\n      iszero\n      tag_164\n      jumpi\n        /* \"#utility.yul\":5835:5914   */\n      tag_165\n      tag_60\n      jump\t// in\n    tag_165:\n        /* \"#utility.yul\":5797:5916   */\n    tag_164:\n        /* \"#utility.yul\":5955:5956   */\n      0x00\n        /* \"#utility.yul\":5980:6033   */\n      tag_166\n        /* \"#utility.yul\":6025:6032   */\n      dup7\n        /* \"#utility.yul\":6016:6022   */\n      dup3\n        /* \"#utility.yul\":6005:6014   */\n      dup8\n        /* \"#utility.yul\":6001:6023   */\n      add\n        /* \"#utility.yul\":5980:6033   */\n      tag_65\n      jump\t// in\n    tag_166:\n        /* \"#utility.yul\":5970:6033   */\n      swap4\n      pop\n        /* \"#utility.yul\":5926:6043   */\n      pop\n        /* \"#utility.yul\":6110:6112   */\n      0x20\n        /* \"#utility.yul\":6099:6108   */\n      dup5\n        /* \"#utility.yul\":6095:6113   */\n      add\n        /* \"#utility.yul\":6082:6114   */\n      calldataload\n        /* \"#utility.yul\":6141:6159   */\n      0xffffffffffffffff\n        /* \"#utility.yul\":6133:6139   */\n      dup2\n        /* \"#utility.yul\":6130:6160   */\n      gt\n        /* \"#utility.yul\":6127:6244   */\n      iszero\n      tag_167\n      jumpi\n        /* \"#utility.yul\":6163:6242   */\n      tag_168\n      tag_61\n      jump\t// in\n    tag_168:\n        /* \"#utility.yul\":6127:6244   */\n    tag_167:\n        /* \"#utility.yul\":6268:6331   */\n      tag_169\n        /* \"#utility.yul\":6323:6330   */\n      dup7\n        /* \"#utility.yul\":6314:6320   */\n      dup3\n        /* \"#utility.yul\":6303:6312   */\n      dup8\n        /* \"#utility.yul\":6299:6321   */\n      add\n        /* \"#utility.yul\":6268:6331   */\n      tag_81\n      jump\t// in\n    tag_169:\n        /* \"#utility.yul\":6258:6331   */\n      swap3\n      pop\n        /* \"#utility.yul\":6053:6341   */\n      pop\n        /* \"#utility.yul\":6408:6410   */\n      0x40\n        /* \"#utility.yul\":6397:6406   */\n      dup5\n        /* \"#utility.yul\":6393:6411   */\n      add\n        /* \"#utility.yul\":6380:6412   */\n      calldataload\n        /* \"#utility.yul\":6439:6457   */\n      0xffffffffffffffff\n        /* \"#utility.yul\":6431:6437   */\n      dup2\n        /* \"#utility.yul\":6428:6458   */\n      gt\n        /* \"#utility.yul\":6425:6542   */\n      iszero\n      tag_170\n      jumpi\n        /* \"#utility.yul\":6461:6540   */\n      tag_171\n      tag_61\n      jump\t// in\n    tag_171:\n        /* \"#utility.yul\":6425:6542   */\n    tag_170:\n        /* \"#utility.yul\":6566:6629   */\n      tag_172\n        /* \"#utility.yul\":6621:6628   */\n      dup7\n        /* \"#utility.yul\":6612:6618   */\n      dup3\n        /* \"#utility.yul\":6601:6610   */\n      dup8\n        /* \"#utility.yul\":6597:6619   */\n      add\n        /* \"#utility.yul\":6566:6629   */\n      tag_81\n      jump\t// in\n    tag_172:\n        /* \"#utility.yul\":6556:6629   */\n      swap2\n      pop\n        /* \"#utility.yul\":6351:6639   */\n      pop\n        /* \"#utility.yul\":5667:6646   */\n      swap3\n      pop\n      swap3\n      pop\n      swap3\n      jump\t// out\n        /* \"#utility.yul\":6652:6832   */\n    tag_82:\n        /* \"#utility.yul\":6700:6777   */\n      0x4e487b7100000000000000000000000000000000000000000000000000000000\n        /* \"#utility.yul\":6697:6698   */\n      0x00\n        /* \"#utility.yul\":6690:6778   */\n      mstore\n        /* \"#utility.yul\":6797:6801   */\n      0x22\n        /* \"#utility.yul\":6794:6795   */\n      0x04\n        /* \"#utility.yul\":6787:6802   */\n      mstore\n        /* \"#utility.yul\":6821:6825   */\n      0x24\n        /* \"#utility.yul\":6818:6819   */\n      0x00\n        /* \"#utility.yul\":6811:6826   */\n      revert\n        /* \"#utility.yul\":6838:7158   */\n    tag_32:\n        /* \"#utility.yul\":6882:6888   */\n      0x00\n        /* \"#utility.yul\":6919:6920   */\n      0x02\n        /* \"#utility.yul\":6913:6917   */\n      dup3\n        /* \"#utility.yul\":6909:6921   */\n      div\n        /* \"#utility.yul\":6899:6921   */\n      swap1\n      pop\n        /* \"#utility.yul\":6966:6967   */\n      0x01\n        /* \"#utility.yul\":6960:6964   */\n      dup3\n        /* \"#utility.yul\":6956:6968   */\n      and\n        /* \"#utility.yul\":6987:7005   */\n      dup1\n        /* \"#utility.yul\":6977:7058   */\n      tag_175\n      jumpi\n        /* \"#utility.yul\":7043:7047   */\n      0x7f\n        /* \"#utility.yul\":7035:7041   */\n      dup3\n        /* \"#utility.yul\":7031:7048   */\n      and\n        /* \"#utility.yul\":7021:7048   */\n      swap2\n      pop\n        /* \"#utility.yul\":6977:7058   */\n    tag_175:\n        /* \"#utility.yul\":7105:7107   */\n      0x20\n        /* \"#utility.yul\":7097:7103   */\n      dup3\n        /* \"#utility.yul\":7094:7108   */\n      lt\n        /* \"#utility.yul\":7074:7092   */\n      dup2\n        /* \"#utility.yul\":7071:7109   */\n      sub\n        /* \"#utility.yul\":7068:7152   */\n      tag_176\n      jumpi\n        /* \"#utility.yul\":7124:7142   */\n      tag_177\n      tag_82\n      jump\t// in\n    tag_177:\n        /* \"#utility.yul\":7068:7152   */\n    tag_176:\n        /* \"#utility.yul\":6889:7158   */\n      pop\n        /* \"#utility.yul\":6838:7158   */\n      swap2\n      swap1\n      pop\n      jump\t// out\n        /* \"#utility.yul\":7164:7341   */\n    tag_83:\n        /* \"#utility.yul\":7304:7333   */\n      0x436572746966696361746520616c7265616479207265766f6b65640000000000\n        /* \"#utility.yul\":7300:7301   */\n      0x00\n        /* \"#utility.yul\":7292:7298   */\n      dup3\n        /* \"#utility.yul\":7288:7302   */\n      add\n        /* \"#utility.yul\":7281:7334   */\n      mstore\n        /* \"#utility.yul\":7164:7341   */\n      pop\n      jump\t// out\n        /* \"#utility.yul\":7347:7713   */\n    tag_84:\n        /* \"#utility.yul\":7489:7492   */\n      0x00\n        /* \"#utility.yul\":7510:7577   */\n      tag_180\n        /* \"#utility.yul\":7574:7576   */\n      0x1b\n        /* \"#utility.yul\":7569:7572   */\n      dup4\n        /* \"#utility.yul\":7510:7577   */\n      tag_67\n      jump\t// in\n    tag_180:\n        /* \"#utility.yul\":7503:7577   */\n      swap2\n      pop\n        /* \"#utility.yul\":7586:7679   */\n      tag_181\n        /* \"#utility.yul\":7675:7678   */\n      dup3\n        /* \"#utility.yul\":7586:7679   */\n      tag_83\n      jump\t// in\n    tag_181:\n        /* \"#utility.yul\":7704:7706   */\n      0x20\n        /* \"#utility.yul\":7699:7702   */\n      dup3\n        /* \"#utility.yul\":7695:7707   */\n      add\n        /* \"#utility.yul\":7688:7707   */\n      swap1\n      pop\n        /* \"#utility.yul\":7347:7713   */\n      swap2\n      swap1\n      pop\n      jump\t// out\n        /* \"#utility.yul\":7719:8138   */\n    tag_45:\n        /* \"#utility.yul\":7885:7889   */\n      0x00\n        /* \"#utility.yul\":7923:7925   */\n      0x20\n        /* \"#utility.yul\":7912:7921   */\n      dup3\n        /* \"#utility.yul\":7908:7926   */\n      add\n        /* \"#utility.yul\":7900:7926   */\n      swap1\n      pop\n        /* \"#utility.yul\":7972:7981   */\n      dup2\n        /* \"#utility.yul\":7966:7970   */\n      dup2\n        /* \"#utility.yul\":7962:7982   */\n      sub\n        /* \"#utility.yul\":7958:7959   */\n      0x00\n        /* \"#utility.yul\":7947:7956   */\n      dup4\n        /* \"#utility.yul\":7943:7960   */\n      add\n        /* \"#utility.yul\":7936:7983   */\n      mstore\n        /* \"#utility.yul\":8000:8131   */\n      tag_183\n        /* \"#utility.yul\":8126:8130   */\n      dup2\n        /* \"#utility.yul\":8000:8131   */\n      tag_84\n      jump\t// in\n    tag_183:\n        /* \"#utility.yul\":7992:8131   */\n      swap1\n      pop\n        /* \"#utility.yul\":7719:8138   */\n      swap2\n      swap1\n      pop\n      jump\t// out\n        /* \"#utility.yul\":8144:8285   */\n    tag_85:\n        /* \"#utility.yul\":8193:8197   */\n      0x00\n        /* \"#utility.yul\":8216:8219   */\n      dup2\n        /* \"#utility.yul\":8208:8219   */\n      swap1\n      pop\n        /* \"#utility.yul\":8239:8242   */\n      dup2\n        /* \"#utility.yul\":8236:8237   */\n      0x00\n        /* \"#utility.yul\":8229:8243   */\n      mstore\n        /* \"#utility.yul\":8273:8277   */\n      0x20\n        /* \"#utility.yul\":8270:8271   */\n      0x00\n        /* \"#utility.yul\":8260:8278   */\n      keccak256\n        /* \"#utility.yul\":8252:8278   */\n      swap1\n      pop\n        /* \"#utility.yul\":8144:8285   */\n      swap2\n      swap1\n      pop\n      jump\t// out\n        /* \"#utility.yul\":8291:8384   */\n    tag_86:\n        /* \"#utility.yul\":8328:8334   */\n      0x00\n        /* \"#utility.yul\":8375:8377   */\n      0x20\n        /* \"#utility.yul\":8370:8372   */\n      0x1f\n        /* \"#utility.yul\":8363:8368   */\n      dup4\n        /* \"#utility.yul\":8359:8373   */\n      add\n        /* \"#utility.yul\":8355:8378   */\n      div\n        /* \"#utility.yul\":8345:8378   */\n      swap1\n      pop\n        /* \"#utility.yul\":8291:8384   */\n      swap2\n      swap1\n      pop\n      jump\t// out\n        /* \"#utility.yul\":8390:8497   */\n    tag_87:\n        /* \"#utility.yul\":8434:8442   */\n      0x00\n        /* \"#utility.yul\":8484:8489   */\n      dup3\n        /* \"#utility.yul\":8478:8482   */\n      dup3\n        /* \"#utility.yul\":8474:8490   */\n      shl\n        /* \"#utility.yul\":8453:8490   */\n      swap1\n      pop\n        /* \"#utility.yul\":8390:8497   */\n      swap3\n      swap2\n      pop\n      pop\n      jump\t// out\n        /* \"#utility.yul\":8503:8896   */\n    tag_88:\n        /* \"#utility.yul\":8572:8578   */\n      0x00\n        /* \"#utility.yul\":8622:8623   */\n      0x08\n        /* \"#utility.yul\":8610:8620   */\n      dup4\n        /* \"#utility.yul\":8606:8624   */\n      mul\n        /* \"#utility.yul\":8645:8742   */\n      tag_188\n        /* \"#utility.yul\":8675:8741   */\n      0xffffffffffffffffffffffffffffffffffffffffffffffffffffffffffffffff\n        /* \"#utility.yul\":8664:8673   */\n      dup3\n        /* \"#utility.yul\":8645:8742   */\n      tag_87\n      jump\t// in\n    tag_188:\n        /* \"#utility.yul\":8763:8802   */\n      tag_189\n        /* \"#utility.yul\":8793:8801   */\n      dup7\n        /* \"#utility.yul\":8782:8791   */\n      dup4\n        /* \"#utility.yul\":8763:8802   */\n      tag_87\n      jump\t// in\n    tag_189:\n        /* \"#utility.yul\":8751:8802   */\n      swap6\n      pop\n        /* \"#utility.yul\":8835:8839   */\n      dup1\n        /* \"#utility.yul\":8831:8840   */\n      not\n        /* \"#utility.yul\":8824:8829   */\n      dup5\n        /* \"#utility.yul\":8820:8841   */\n      and\n        /* \"#utility.yul\":8811:8841   */\n      swap4\n      pop\n        /* \"#utility.yul\":8884:8888   */\n      dup1\n        /* \"#utility.yul\":8874:8882   */\n      dup7\n        /* \"#utility.yul\":8870:8889   */\n      and\n        /* \"#utility.yul\":8863:8868   */\n      dup5\n        /* \"#utility.yul\":8860:8890   */\n      or\n        /* \"#utility.yul\":8850:8890   */\n      swap3\n      pop\n        /* \"#utility.yul\":8579:8896   */\n      pop\n      pop\n        /* \"#utility.yul\":8503:8896   */\n      swap4\n      swap3\n      pop\n      pop\n      pop\n      jump\t// out\n        /* \"#utility.yul\":8902:8979   */\n    tag_89:\n        /* \"#utility.yul\":8939:8946   */\n      0x00\n        /* \"#utility.yul\":8968:8973   */\n      dup2\n        /* \"#utility.yul\":8957:8973   */\n      swap1\n      pop\n        /* \"#utility.yul\":8902:8979   */\n      swap2\n      swap1\n      pop\n      jump\t// out\n        /* \"#utility.yul\":8985:9045   */\n    tag_90:\n        /* \"#utility.yul\":9013:9016   */\n      0x00\n        /* \"#utility.yul\":9034:9039   */\n      dup2\n        /* \"#utility.yul\":9027:9039   */\n      swap1\n      pop\n        /* \"#utility.yul\":8985:9045   */\n      swap2\n      swap1\n      pop\n      jump\t// out\n        /* \"#utility.yul\":9051:9193   */\n    tag_91:\n        /* \"#utility.yul\":9101:9110   */\n      0x00\n        /* \"#utility.yul\":9134:9187   */\n      tag_193\n        /* \"#utility.yul\":9152:9186   */\n      tag_194\n        /* \"#utility.yul\":9161:9185   */\n      tag_195\n        /* \"#utility.yul\":9179:9184   */\n      dup5\n        /* \"#utility.yul\":9161:9185   */\n      tag_89\n      jump\t// in\n    tag_195:\n        /* \"#utility.yul\":9152:9186   */\n      tag_90\n      jump\t// in\n    tag_194:\n        /* \"#utility.yul\":9134:9187   */\n      tag_89\n      jump\t// in\n    tag_193:\n        /* \"#utility.yul\":9121:9187   */\n      swap1\n      pop\n        /* \"#utility.yul\":9051:9193   */\n      swap2\n      swap1\n      pop\n      jump\t// out\n        /* \"#utility.yul\":9199:9274   */\n    tag_92:\n        /* \"#utility.yul\":9242:9245   */\n      0x00\n        /* \"#utility.yul\":9263:9268   */\n      dup2\n        /* \"#utility.yul\":9256:9268   */\n      swap1\n      pop\n        /* \"#utility.yul\":9199:9274   */\n      swap2\n      swap1\n      pop\n      jump\t// out\n        /* \"#utility.yul\":9280:9549   */\n    tag_93:\n        /* \"#utility.yul\":9390:9429   */\n      tag_198\n        /* \"#utility.yul\":9421:9428   */\n      dup4\n        /* \"#utility.yul\":9390:9429   */\n      tag_91\n      jump\t// in\n    tag_198:\n        /* \"#utility.yul\":9451:9542   */\n      tag_199\n        /* \"#utility.yul\":9500:9541   */\n      tag_200\n        /* \"#utility.yul\":9524:9540   */\n      dup3\n        /* \"#utility.yul\":9500:9541   */\n      tag_92\n      jump\t// in\n    tag_200:\n        /* \"#utility.yul\":9492:9498   */\n      dup5\n        /* \"#utility.yul\":9485:9489   */\n      dup5\n        /* \"#utility.yul\":9479:9490   */\n      sload\n        /* \"#utility.yul\":9451:9542   */\n      tag_88\n      jump\t// in\n    tag_199:\n        /* \"#utility.yul\":9445:9449   */\n      dup3\n        /* \"#utility.yul\":9438:9543   */\n      sstore\n        /* \"#utility.yul\":9356:9549   */\n      pop\n        /* \"#utility.yul\":9280:9549   */\n      pop\n      pop\n      pop\n      jump\t// out\n        /* \"#utility.yul\":9555:9628   */\n    tag_94:\n        /* \"#utility.yul\":9600:9603   */\n      0x00\n        /* \"#utility.yul\":9555:9628   */\n      swap1\n      jump\t// out\n        /* \"#utility.yul\":9634:9823   */\n    tag_95:\n        /* \"#utility.yul\":9711:9743   */\n      tag_203\n      tag_94\n      jump\t// in\n    tag_203:\n        /* \"#utility.yul\":9752:9817   */\n      tag_204\n        /* \"#utility.yul\":9810:9816   */\n      dup2\n        /* \"#utility.yul\":9802:9808   */\n      dup5\n        /* \"#utility.yul\":9796:9800   */\n      dup5\n        /* \"#utility.yul\":9752:9817   */\n      tag_93\n      jump\t// in\n    tag_204:\n        /* \"#utility.yul\":9687:9823   */\n      pop\n        /* \"#utility.yul\":9634:9823   */\n      pop\n      pop\n      jump\t// out\n        /* \"#utility.yul\":9829:10015   */\n    tag_96:\n        /* \"#utility.yul\":9889:10009   */\n    tag_206:\n        /* \"#utility.yul\":9906:9909   */\n      dup2\n        /* \"#utility.yul\":9899:9904   */\n      dup2\n        /* \"#utility.yul\":9896:9910   */\n      lt\n        /* \"#utility.yul\":9889:10009   */\n      iszero\n      tag_208\n      jumpi\n        /* \"#utility.yul\":9960:9999   */\n      tag_209\n        /* \"#utility.yul\":9997:9998   */\n      0x00\n        /* \"#utility.yul\":9990:9995   */\n      dup3\n        /* \"#utility.yul\":9960:9999   */\n      tag_95\n      jump\t// in\n    tag_209:\n        /* \"#utility.yul\":9933:9934   */\n      0x01\n        /* \"#utility.yul\":9926:9931   */\n      dup2\n        /* \"#utility.yul\":9922:9935   */\n      add\n        /* \"#utility.yul\":9913:9935   */\n      swap1\n      pop\n        /* \"#utility.yul\":9889:10009   */\n      jump(tag_206)\n    tag_208:\n        /* \"#utility.yul\":9829:10015   */\n      pop\n      pop\n      jump\t// out\n        /* \"#utility.yul\":10021:10564   */\n    tag_97:\n        /* \"#utility.yul\":10122:10124   */\n      0x1f\n        /* \"#utility.yul\":10117:10120   */\n      dup3\n        /* \"#utility.yul\":10114:10125   */\n      gt\n        /* \"#utility.yul\":10111:10557   */\n      iszero\n      tag_211\n      jumpi\n        /* \"#utility.yul\":10156:10194   */\n      tag_212\n        /* \"#utility.yul\":10188:10193   */\n      dup2\n        /* \"#utility.yul\":10156:10194   */\n      tag_85\n      jump\t// in\n    tag_212:\n        /* \"#utility.yul\":10240:10269   */\n      tag_213\n        /* \"#utility.yul\":10258:10268   */\n      dup5\n        /* \"#utility.yul\":10240:10269   */\n      tag_86\n      jump\t// in\n    tag_213:\n        /* \"#utility.yul\":10230:10238   */\n      dup2\n        /* \"#utility.yul\":10226:10270   */\n      add\n        /* \"#utility.yul\":10423:10425   */\n      0x20\n        /* \"#utility.yul\":10411:10421   */\n      dup6\n        /* \"#utility.yul\":10408:10426   */\n      lt\n        /* \"#utility.yul\":10405:10454   */\n      iszero\n      tag_214\n      jumpi\n        /* \"#utility.yul\":10444:10452   */\n      dup2\n        /* \"#utility.yul\":10429:10452   */\n      swap1\n      pop\n        /* \"#utility.yul\":10405:10454   */\n    tag_214:\n        /* \"#utility.yul\":10467:10547   */\n      tag_215\n        /* \"#utility.yul\":10523:10545   */\n      tag_216\n        /* \"#utility.yul\":10541:10544   */\n      dup6\n        /* \"#utility.yul\":10523:10545   */\n      tag_86\n      jump\t// in\n    tag_216:\n        /* \"#utility.yul\":10513:10521   */\n      dup4\n        /* \"#utility.yul\":10509:10546   */\n      add\n        /* \"#utility.yul\":10496:10507   */\n      dup3\n        /* \"#utility.yul\":10467:10547   */\n      tag_96\n      jump\t// in\n    tag_215:\n        /* \"#utility.yul\":10126:10557   */\n      pop\n      pop\n        /* \"#utility.yul\":10111:10557   */\n    tag_211:\n        /* \"#utility.yul\":10021:10564   */\n      pop\n      pop\n      pop\n      jump\t// out\n        /* \"#utility.yul\":10570:10687   */\n    tag_98:\n        /* \"#utility.yul\":10624:10632   */\n      0x00\n        /* \"#utility.yul\":10674:10679   */\n      dup3\n        /* \"#utility.yul\":10668:10672   */\n      dup3\n        /* \"#utility.yul\":10664:10680   */\n      shr\n        /* \"#utility.yul\":10643:10680   */\n      swap1\n      pop\n        /* \"#utility.yul\":10570:10687   */\n      swap3\n      swap2\n      pop\n      pop\n      jump\t// out\n        /* \"#utility.yul\":10693:10862   */\n    tag_99:\n        /* \"#utility.yul\":10737:10743   */\n      0x00\n        /* \"#utility.yul\":10770:10821   */\n      tag_219\n        /* \"#utility.yul\":10818:10819   */\n      0x00\n        /* \"#utility.yul\":10814:10820   */\n      not\n        /* \"#utility.yul\":10806:10811   */\n      dup5\n        /* \"#utility.yul\":10803:10804   */\n      0x08\n        /* \"#utility.yul\":10799:10812   */\n      mul\n        /* \"#utility.yul\":10770:10821   */\n      tag_98\n      jump\t// in\n    tag_219:\n        /* \"#utility.yul\":10766:10822   */\n      not\n        /* \"#utility.yul\":10851:10855   */\n      dup1\n        /* \"#utility.yul\":10845:10849   */\n      dup4\n        /* \"#utility.yul\":10841:10856   */\n      and\n        /* \"#utility.yul\":10831:10856   */\n      swap2\n      pop\n        /* \"#utility.yul\":10744:10862   */\n      pop\n        /* \"#utility.yul\":10693:10862   */\n      swap3\n      swap2\n      pop\n      pop\n      jump\t// out\n        /* \"#utility.yul\":10867:11162   */\n    tag_100:\n        /* \"#utility.yul\":10943:10947   */\n      0x00\n        /* \"#utility.yul\":11089:11118   */\n      tag_221\n        /* \"#utility.yul\":11114:11117   */\n      dup4\n        /* \"#utility.yul\":11108:11112   */\n      dup4\n        /* \"#utility.yul\":11089:11118   */\n      tag_99\n      jump\t// in\n    tag_221:\n        /* \"#utility.yul\":11081:11118   */\n      swap2\n      pop\n        /* \"#utility.yul\":11151:11154   */\n      dup3\n        /* \"#utility.yul\":11148:11149   */\n      0x02\n        /* \"#utility.yul\":11144:11155   */\n      mul\n        /* \"#utility.yul\":11138:11142   */\n      dup3\n        /* \"#utility.yul\":11135:11156   */\n      or\n        /* \"#utility.yul\":11127:11156   */\n      swap1\n      pop\n        /* \"#utility.yul\":10867:11162   */\n      swap3\n      swap2\n      pop\n      pop\n      jump\t// out\n        /* \"#utility.yul\":11167:12562   */\n    tag_55:\n        /* \"#utility.yul\":11284:11321   */\n      tag_223\n        /* \"#utility.yul\":11317:11320   */\n      dup3\n        /* \"#utility.yul\":11284:11321   */\n      tag_66\n      jump\t// in\n    tag_223:\n        /* \"#utility.yul\":11386:11404   */\n      0xffffffffffffffff\n        /* \"#utility.yul\":11378:11384   */\n      dup2\n        /* \"#utility.yul\":11375:11405   */\n      gt\n        /* \"#utility.yul\":11372:11428   */\n      iszero\n      tag_224\n      jumpi\n        /* \"#utility.yul\":11408:11426   */\n      tag_225\n      tag_75\n      jump\t// in\n    tag_225:\n        /* \"#utility.yul\":11372:11428   */\n    tag_224:\n        /* \"#utility.yul\":11452:11490   */\n      tag_226\n        /* \"#utility.yul\":11484:11488   */\n      dup3\n        /* \"#utility.yul\":11478:11489   */\n      sload\n        /* \"#utility.yul\":11452:11490   */\n      tag_32\n      jump\t// in\n    tag_226:\n        /* \"#utility.yul\":11537:11604   */\n      tag_227\n        /* \"#utility.yul\":11597:11603   */\n      dup3\n        /* \"#utility.yul\":11589:11595   */\n      dup3\n        /* \"#utility.yul\":11583:11587   */\n      dup6\n        /* \"#utility.yul\":11537:11604   */\n      tag_97\n      jump\t// in\n    tag_227:\n        /* \"#utility.yul\":11631:11632   */\n      0x00\n        /* \"#utility.yul\":11655:11659   */\n      0x20\n        /* \"#utility.yul\":11642:11659   */\n      swap1\n      pop\n        /* \"#utility.yul\":11687:11689   */\n      0x1f\n        /* \"#utility.yul\":11679:11685   */\n      dup4\n        /* \"#utility.yul\":11676:11690   */\n      gt\n        /* \"#utility.yul\":11704:11705   */\n      0x01\n        /* \"#utility.yul\":11699:12317   */\n      dup2\n      eq\n      tag_229\n      jumpi\n        /* \"#utility.yul\":12361:12362   */\n      0x00\n        /* \"#utility.yul\":12378:12384   */\n      dup5\n        /* \"#utility.yul\":12375:12452   */\n      iszero\n      tag_230\n      jumpi\n        /* \"#utility.yul\":12427:12436   */\n      dup3\n        /* \"#utility.yul\":12422:12425   */\n      dup8\n        /* \"#utility.yul\":12418:12437   */\n      add\n        /* \"#utility.yul\":12412:12438   */\n      mload\n        /* \"#utility.yul\":12403:12438   */\n      swap1\n      pop\n        /* \"#utility.yul\":12375:12452   */\n    tag_230:\n        /* \"#utility.yul\":12478:12545   */\n      tag_231\n        /* \"#utility.yul\":12538:12544   */\n      dup6\n        /* \"#utility.yul\":12531:12536   */\n      dup3\n        /* \"#utility.yul\":12478:12545   */\n      tag_100\n      jump\t// in\n    tag_231:\n        /* \"#utility.yul\":12472:12476   */\n      dup7\n        /* \"#utility.yul\":12465:12546   */\n      sstore\n        /* \"#utility.yul\":12334:12556   */\n      pop\n        /* \"#utility.yul\":11669:12556   */\n      jump(tag_228)\n        /* \"#utility.yul\":11699:12317   */\n    tag_229:\n        /* \"#utility.yul\":11751:11755   */\n      0x1f\n        /* \"#utility.yul\":11747:11756   */\n      not\n        /* \"#utility.yul\":11739:11745   */\n      dup5\n        /* \"#utility.yul\":11735:11757   */\n      and\n        /* \"#utility.yul\":11785:11822   */\n      tag_232\n        /* \"#utility.yul\":11817:11821   */\n      dup7\n        /* \"#utility.yul\":11785:11822   */\n      tag_85\n      jump\t// in\n    tag_232:\n        /* \"#utility.yul\":11844:11845   */\n      0x00\n        /* \"#utility.yul\":11858:12066   */\n    tag_233:\n        /* \"#utility.yul\":11872:11879   */\n      dup3\n        /* \"#utility.yul\":11869:11870   */\n      dup2\n        /* \"#utility.yul\":11866:11880   */\n      lt\n        /* \"#utility.yul\":11858:12066   */\n      iszero\n      tag_235\n      jumpi\n        /* \"#utility.yul\":11951:11960   */\n      dup5\n        /* \"#utility.yul\":11946:11949   */\n      dup10\n        /* \"#utility.yul\":11942:11961   */\n      add\n        /* \"#utility.yul\":11936:11962   */\n      mload\n        /* \"#utility.yul\":11928:11934   */\n      dup3\n        /* \"#utility.yul\":11921:11963   */\n      sstore\n        /* \"#utility.yul\":12002:12003   */\n      0x01\n        /* \"#utility.yul\":11994:12000   */\n      dup3\n        /* \"#utility.yul\":11990:12004   */\n      add\n        /* \"#utility.yul\":11980:12004   */\n      swap2\n      pop\n        /* \"#utility.yul\":12049:12051   */\n      0x20\n        /* \"#utility.yul\":12038:12047   */\n      dup6\n        /* \"#utility.yul\":12034:12052   */\n      add\n        /* \"#utility.yul\":12021:12052   */\n      swap5\n      pop\n        /* \"#utility.yul\":11895:11899   */\n      0x20\n        /* \"#utility.yul\":11892:11893   */\n      dup2\n        /* \"#utility.yul\":11888:11900   */\n      add\n        /* \"#utility.yul\":11883:11900   */\n      swap1\n      pop\n        /* \"#utility.yul\":11858:12066   */\n      jump(tag_233)\n    tag_235:\n        /* \"#utility.yul\":12094:12100   */\n      dup7\n        /* \"#utility.yul\":12085:12092   */\n      dup4\n        /* \"#utility.yul\":12082:12101   */\n      lt\n        /* \"#utility.yul\":12079:12258   */\n      iszero\n      tag_236\n      jumpi\n        /* \"#utility.yul\":12152:12161   */\n      dup5\n        /* \"#utility.yul\":12147:12150   */\n      dup10\n        /* \"#utility.yul\":12143:12162   */\n      add\n        /* \"#utility.yul\":12137:12163   */\n      mload\n        /* \"#utility.yul\":12195:12243   */\n      tag_237\n        /* \"#utility.yul\":12237:12241   */\n      0x1f\n        /* \"#utility.yul\":12229:12235   */\n      dup10\n        /* \"#utility.yul\":12225:12242   */\n      and\n        /* \"#utility.yul\":12214:12223   */\n      dup3\n        /* \"#utility.yul\":12195:12243   */\n      tag_99\n      jump\t// in\n    tag_237:\n        /* \"#utility.yul\":12187:12193   */\n      dup4\n        /* \"#utility.yul\":12180:12244   */\n      sstore\n        /* \"#utility.yul\":12102:12258   */\n      pop\n        /* \"#utility.yul\":12079:12258   */\n    tag_236:\n        /* \"#utility.yul\":12304:12305   */\n      0x01\n        /* \"#utility.yul\":12300:12301   */\n      0x02\n        /* \"#utility.yul\":12292:12298   */\n      dup9\n        /* \"#utility.yul\":12288:12302   */\n      mul\n        /* \"#utility.yul\":12284:12306   */\n      add\n        /* \"#utility.yul\":12278:12282   */\n      dup9\n        /* \"#utility.yul\":12271:12307   */\n      sstore\n        /* \"#utility.yul\":11706:12317   */\n      pop\n      pop\n      pop\n        /* \"#utility.yul\":11669:12556   */\n    tag_228:\n      pop\n        /* \"#utility.yul\":11259:12562   */\n      pop\n      pop\n      pop\n        /* \"#utility.yul\":11167:12562   */\n      pop\n      pop\n      jump\t// out\n        /* \"#utility.yul\":12568:12881   */\n    tag_58:\n        /* \"#utility.yul\":12681:12685   */\n      0x00\n        /* \"#utility.yul\":12719:12721   */\n      0x20\n        /* \"#utility.yul\":12708:12717   */\n      dup3\n        /* \"#utility.yul\":12704:12722   */\n      add\n        /* \"#utility.yul\":12696:12722   */\n      swap1\n      pop\n        /* \"#utility.yul\":12768:12777   */\n      dup2\n        /* \"#utility.yul\":12762:12766   */\n      dup2\n        /* \"#utility.yul\":12758:12778   */\n      sub\n        /* \"#utility.yul\":12754:12755   */\n      0x00\n        /* \"#utility.yul\":12743:12752   */\n      dup4\n        /* \"#utility.yul\":12739:12756   */\n      add\n        /* \"#utility.yul\":12732:12779   */\n      mstore\n        /* \"#utility.yul\":12796:12874   */\n      tag_239\n        /* \"#utility.yul\":12869:12873   */\n      dup2\n        /* \"#utility.yul\":12860:12866   */\n      dup5\n        /* \"#utility.yul\":12796:12874   */\n      tag_70\n      jump\t// in\n    tag_239:\n        /* \"#utility.yul\":12788:12874   */\n      swap1\n      pop\n        /* \"#utility.yul\":12568:12881   */\n      swap3\n      swap2\n      pop\n      pop\n      jump\t// out\n\n    auxdata: 0xa264697066735822122065993c07bea428a040401c8d928d8e14cc4382ad9096e0343068c7bf53fbeda164736f6c634300081a0033\n}\n",
				"bytecode": {
					"linkReferences": {},
					"object": "6080604052348015600e575f80fd5b50610ce48061001c5f395ff3fe608060405234801561000f575f80fd5b5060043610610054575f3560e01c806216e526146100585780635f893bfa1461008a5780636b9afc90146100a6578063c3be3ce1146100d6578063e98ac4d814610107575b5f80fd5b610072600480360381019061006d9190610661565b610123565b60405161008193929190610716565b60405180910390f35b6100a4600480360381019061009f9190610661565b610260565b005b6100c060048036038101906100bb9190610661565b610389565b6040516100cd9190610759565b60405180910390f35b6100f060048036038101906100eb9190610661565b6103de565b6040516100fe929190610772565b60405180910390f35b610121600480360381019061011c91906108cc565b6104fe565b005b5f602052805f5260405f205f91509050805f01805461014190610981565b80601f016020809104026020016040519081016040528092919081815260200182805461016d90610981565b80156101b85780601f1061018f576101008083540402835291602001916101b8565b820191905f5260205f20905b81548152906001019060200180831161019b57829003601f168201915b5050505050908060010180546101cd90610981565b80601f01602080910402602001604051908101604052809291908181526020018280546101f990610981565b80156102445780601f1061021b57610100808354040283529160200191610244565b820191905f5260205f20905b81548152906001019060200180831161022757829003601f168201915b505050505090806002015f9054906101000a900460ff16905083565b5f808273ffffffffffffffffffffffffffffffffffffffff1673ffffffffffffffffffffffffffffffffffffffff1681526020019081526020015f206002015f9054906101000a900460ff16156102ec576040517f08c379a00000000000000000000000000000000000000000000000000000000081526004016102e3906109fb565b60405180910390fd5b60015f808373ffffffffffffffffffffffffffffffffffffffff1673ffffffffffffffffffffffffffffffffffffffff1681526020019081526020015f206002015f6101000a81548160ff0219169083151502179055508073ffffffffffffffffffffffffffffffffffffffff167f1572544b0385aedb556974d7757e2ca8049d2da99a9a5209fa9781c74d5f82c860405160405180910390a250565b5f805f8373ffffffffffffffffffffffffffffffffffffffff1673ffffffffffffffffffffffffffffffffffffffff1681526020019081526020015f206002015f9054906101000a900460ff16159050919050565b60605f805f8473ffffffffffffffffffffffffffffffffffffffff1673ffffffffffffffffffffffffffffffffffffffff1681526020019081526020015f205f015f808573ffffffffffffffffffffffffffffffffffffffff1673ffffffffffffffffffffffffffffffffffffffff1681526020019081526020015f206002015f9054906101000a900460ff1681805461047790610981565b80601f01602080910402602001604051908101604052809291908181526020018280546104a390610981565b80156104ee5780601f106104c5576101008083540402835291602001916104ee565b820191905f5260205f20905b8154815290600101906020018083116104d157829003601f168201915b5050505050915091509150915091565b60405180606001604052808381526020018281526020015f15158152505f808573ffffffffffffffffffffffffffffffffffffffff1673ffffffffffffffffffffffffffffffffffffffff1681526020019081526020015f205f820151815f01908161056a9190610bbf565b5060208201518160010190816105809190610bbf565b506040820151816002015f6101000a81548160ff0219169083151502179055509050508273ffffffffffffffffffffffffffffffffffffffff167f4514a45e6f56567008e790fe2158e66d34e8b8254c060ad061d5702748791479836040516105e99190610c8e565b60405180910390a2505050565b5f604051905090565b5f80fd5b5f80fd5b5f73ffffffffffffffffffffffffffffffffffffffff82169050919050565b5f61063082610607565b9050919050565b61064081610626565b811461064a575f80fd5b50565b5f8135905061065b81610637565b92915050565b5f60208284031215610676576106756105ff565b5b5f6106838482850161064d565b91505092915050565b5f81519050919050565b5f82825260208201905092915050565b8281835e5f83830152505050565b5f601f19601f8301169050919050565b5f6106ce8261068c565b6106d88185610696565b93506106e88185602086016106a6565b6106f1816106b4565b840191505092915050565b5f8115159050919050565b610710816106fc565b82525050565b5f6060820190508181035f83015261072e81866106c4565b9050818103602083015261074281856106c4565b90506107516040830184610707565b949350505050565b5f60208201905061076c5f830184610707565b92915050565b5f6040820190508181035f83015261078a81856106c4565b90506107996020830184610707565b9392505050565b5f80fd5b5f80fd5b7f4e487b71000000000000000000000000000000000000000000000000000000005f52604160045260245ffd5b6107de826106b4565b810181811067ffffffffffffffff821117156107fd576107fc6107a8565b5b80604052505050565b5f61080f6105f6565b905061081b82826107d5565b919050565b5f67ffffffffffffffff82111561083a576108396107a8565b5b610843826106b4565b9050602081019050919050565b828183375f83830152505050565b5f61087061086b84610820565b610806565b90508281526020810184848401111561088c5761088b6107a4565b5b610897848285610850565b509392505050565b5f82601f8301126108b3576108b26107a0565b5b81356108c384826020860161085e565b91505092915050565b5f805f606084860312156108e3576108e26105ff565b5b5f6108f08682870161064d565b935050602084013567ffffffffffffffff81111561091157610910610603565b5b61091d8682870161089f565b925050604084013567ffffffffffffffff81111561093e5761093d610603565b5b61094a8682870161089f565b9150509250925092565b7f4e487b71000000000000000000000000000000000000000000000000000000005f52602260045260245ffd5b5f600282049050600182168061099857607f821691505b6020821081036109ab576109aa610954565b5b50919050565b7f436572746966696361746520616c7265616479207265766f6b656400000000005f82015250565b5f6109e5601b83610696565b91506109f0826109b1565b602082019050919050565b5f6020820190508181035f830152610a12816109d9565b9050919050565b5f819050815f5260205f209050919050565b5f6020601f8301049050919050565b5f82821b905092915050565b5f60088302610a757fffffffffffffffffffffffffffffffffffffffffffffffffffffffffffffffff82610a3a565b610a7f8683610a3a565b95508019841693508086168417925050509392505050565b5f819050919050565b5f819050919050565b5f610ac3610abe610ab984610a97565b610aa0565b610a97565b9050919050565b5f819050919050565b610adc83610aa9565b610af0610ae882610aca565b848454610a46565b825550505050565b5f90565b610b04610af8565b610b0f818484610ad3565b505050565b5b81811015610b3257610b275f82610afc565b600181019050610b15565b5050565b601f821115610b7757610b4881610a19565b610b5184610a2b565b81016020851015610b60578190505b610b74610b6c85610a2b565b830182610b14565b50505b505050565b5f82821c905092915050565b5f610b975f1984600802610b7c565b1980831691505092915050565b5f610baf8383610b88565b9150826002028217905092915050565b610bc88261068c565b67ffffffffffffffff811115610be157610be06107a8565b5b610beb8254610981565b610bf6828285610b36565b5f60209050601f831160018114610c27575f8415610c15578287015190505b610c1f8582610ba4565b865550610c86565b601f198416610c3586610a19565b5f5b82811015610c5c57848901518255600182019150602085019450602081019050610c37565b86831015610c795784890151610c75601f891682610b88565b8355505b6001600288020188555050505b505050505050565b5f6020820190508181035f830152610ca681846106c4565b90509291505056fea264697066735822122065993c07bea428a040401c8d928d8e14cc4382ad9096e0343068c7bf53fbeda164736f6c634300081a0033",
					"opcodes": "PUSH1 0x80 PUSH1 0x40 MSTORE CALLVALUE DUP1 ISZERO PUSH1 0xE JUMPI PUSH0 DUP1 REVERT JUMPDEST POP PUSH2 0xCE4 DUP1 PUSH2 0x1C PUSH0 CODECOPY PUSH0 RETURN INVALID PUSH1 0x80 PUSH1 0x40 MSTORE CALLVALUE DUP1 ISZERO PUSH2 0xF JUMPI PUSH0 DUP1 REVERT JUMPDEST POP PUSH1 0x4 CALLDATASIZE LT PUSH2 0x54 JUMPI PUSH0 CALLDATALOAD PUSH1 0xE0 SHR DUP1 PUSH3 0x16E526 EQ PUSH2 0x58 JUMPI DUP1 PUSH4 0x5F893BFA EQ PUSH2 0x8A JUMPI DUP1 PUSH4 0x6B9AFC90 EQ PUSH2 0xA6 JUMPI DUP1 PUSH4 0xC3BE3CE1 EQ PUSH2 0xD6 JUMPI DUP1 PUSH4 0xE98AC4D8 EQ PUSH2 0x107 JUMPI JUMPDEST PUSH0 DUP1 REVERT JUMPDEST PUSH2 0x72 PUSH1 0x4 DUP1 CALLDATASIZE SUB DUP2 ADD SWAP1 PUSH2 0x6D SWAP2 SWAP1 PUSH2 0x661 JUMP JUMPDEST PUSH2 0x123 JUMP JUMPDEST PUSH1 0x40 MLOAD PUSH2 0x81 SWAP4 SWAP3 SWAP2 SWAP1 PUSH2 0x716 JUMP JUMPDEST PUSH1 0x40 MLOAD DUP1 SWAP2 SUB SWAP1 RETURN JUMPDEST PUSH2 0xA4 PUSH1 0x4 DUP1 CALLDATASIZE SUB DUP2 ADD SWAP1 PUSH2 0x9F SWAP2 SWAP1 PUSH2 0x661 JUMP JUMPDEST PUSH2 0x260 JUMP JUMPDEST STOP JUMPDEST PUSH2 0xC0 PUSH1 0x4 DUP1 CALLDATASIZE SUB DUP2 ADD SWAP1 PUSH2 0xBB SWAP2 SWAP1 PUSH2 0x661 JUMP JUMPDEST PUSH2 0x389 JUMP JUMPDEST PUSH1 0x40 MLOAD PUSH2 0xCD SWAP2 SWAP1 PUSH2 0x759 JUMP JUMPDEST PUSH1 0x40 MLOAD DUP1 SWAP2 SUB SWAP1 RETURN JUMPDEST PUSH2 0xF0 PUSH1 0x4 DUP1 CALLDATASIZE SUB DUP2 ADD SWAP1 PUSH2 0xEB SWAP2 SWAP1 PUSH2 0x661 JUMP JUMPDEST PUSH2 0x3DE JUMP JUMPDEST PUSH1 0x40 MLOAD PUSH2 0xFE SWAP3 SWAP2 SWAP1 PUSH2 0x772 JUMP JUMPDEST PUSH1 0x40 MLOAD DUP1 SWAP2 SUB SWAP1 RETURN JUMPDEST PUSH2 0x121 PUSH1 0x4 DUP1 CALLDATASIZE SUB DUP2 ADD SWAP1 PUSH2 0x11C SWAP2 SWAP1 PUSH2 0x8CC JUMP JUMPDEST PUSH2 0x4FE JUMP JUMPDEST STOP JUMPDEST PUSH0 PUSH1 0x20 MSTORE DUP1 PUSH0 MSTORE PUSH1 0x40 PUSH0 KECCAK256 PUSH0 SWAP2 POP SWAP1 POP DUP1 PUSH0 ADD DUP1 SLOAD PUSH2 0x141 SWAP1 PUSH2 0x981 JUMP JUMPDEST DUP1 PUSH1 0x1F ADD PUSH1 0x20 DUP1 SWAP2 DIV MUL PUSH1 0x20 ADD PUSH1 0x40 MLOAD SWAP1 DUP2 ADD PUSH1 0x40 MSTORE DUP1 SWAP3 SWAP2 SWAP1 DUP2 DUP2 MSTORE PUSH1 0x20 ADD DUP3 DUP1 SLOAD PUSH2 0x16D SWAP1 PUSH2 0x981 JUMP JUMPDEST DUP1 ISZERO PUSH2 0x1B8 JUMPI DUP1 PUSH1 0x1F LT PUSH2 0x18F JUMPI PUSH2 0x100 DUP1 DUP4 SLOAD DIV MUL DUP4 MSTORE SWAP2 PUSH1 0x20 ADD SWAP2 PUSH2 0x1B8 JUMP JUMPDEST DUP3 ADD SWAP2 SWAP1 PUSH0 MSTORE PUSH1 0x20 PUSH0 KECCAK256 SWAP1 JUMPDEST DUP2 SLOAD DUP2 MSTORE SWAP1 PUSH1 0x1 ADD SWAP1 PUSH1 0x20 ADD DUP1 DUP4 GT PUSH2 0x19B JUMPI DUP3 SWAP1 SUB PUSH1 0x1F AND DUP3 ADD SWAP2 JUMPDEST POP POP POP POP POP SWAP1 DUP1 PUSH1 0x1 ADD DUP1 SLOAD PUSH2 0x1CD SWAP1 PUSH2 0x981 JUMP JUMPDEST DUP1 PUSH1 0x1F ADD PUSH1 0x20 DUP1 SWAP2 DIV MUL PUSH1 0x20 ADD PUSH1 0x40 MLOAD SWAP1 DUP2 ADD PUSH1 0x40 MSTORE DUP1 SWAP3 SWAP2 SWAP1 DUP2 DUP2 MSTORE PUSH1 0x20 ADD DUP3 DUP1 SLOAD PUSH2 0x1F9 SWAP1 PUSH2 0x981 JUMP JUMPDEST DUP1 ISZERO PUSH2 0x244 JUMPI DUP1 PUSH1 0x1F LT PUSH2 0x21B JUMPI PUSH2 0x100 DUP1 DUP4 SLOAD DIV MUL DUP4 MSTORE SWAP2 PUSH1 0x20 ADD SWAP2 PUSH2 0x244 JUMP JUMPDEST DUP3 ADD SWAP2 SWAP1 PUSH0 MSTORE PUSH1 0x20 PUSH0 KECCAK256 SWAP1 JUMPDEST DUP2 SLOAD DUP2 MSTORE SWAP1 PUSH1 0x1 ADD SWAP1 PUSH1 0x20 ADD DUP1 DUP4 GT PUSH2 0x227 JUMPI DUP3 SWAP1 SUB PUSH1 0x1F AND DUP3 ADD SWAP2 JUMPDEST POP POP POP POP POP SWAP1 DUP1 PUSH1 0x2 ADD PUSH0 SWAP1 SLOAD SWAP1 PUSH2 0x100 EXP SWAP1 DIV PUSH1 0xFF AND SWAP1 POP DUP4 JUMP JUMPDEST PUSH0 DUP1 DUP3 PUSH20 0xFFFFFFFFFFFFFFFFFFFFFFFFFFFFFFFFFFFFFFFF AND PUSH20 0xFFFFFFFFFFFFFFFFFFFFFFFFFFFFFFFFFFFFFFFF AND DUP2 MSTORE PUSH1 0x20 ADD SWAP1 DUP2 MSTORE PUSH1 0x20 ADD PUSH0 KECCAK256 PUSH1 0x2 ADD PUSH0 SWAP1 SLOAD SWAP1 PUSH2 0x100 EXP SWAP1 DIV PUSH1 0xFF AND ISZERO PUSH2 0x2EC JUMPI PUSH1 0x40 MLOAD PUSH32 0x8C379A000000000000000000000000000000000000000000000000000000000 DUP2 MSTORE PUSH1 0x4 ADD PUSH2 0x2E3 SWAP1 PUSH2 0x9FB JUMP JUMPDEST PUSH1 0x40 MLOAD DUP1 SWAP2 SUB SWAP1 REVERT JUMPDEST PUSH1 0x1 PUSH0 DUP1 DUP4 PUSH20 0xFFFFFFFFFFFFFFFFFFFFFFFFFFFFFFFFFFFFFFFF AND PUSH20 0xFFFFFFFFFFFFFFFFFFFFFFFFFFFFFFFFFFFFFFFF AND DUP2 MSTORE PUSH1 0x20 ADD SWAP1 DUP2 MSTORE PUSH1 0x20 ADD PUSH0 KECCAK256 PUSH1 0x2 ADD PUSH0 PUSH2 0x100 EXP DUP2 SLOAD DUP2 PUSH1 0xFF MUL NOT AND SWAP1 DUP4 ISZERO ISZERO MUL OR SWAP1 SSTORE POP DUP1 PUSH20 0xFFFFFFFFFFFFFFFFFFFFFFFFFFFFFFFFFFFFFFFF AND PUSH32 0x1572544B0385AEDB556974D7757E2CA8049D2DA99A9A5209FA9781C74D5F82C8 PUSH1 0x40 MLOAD PUSH1 0x40 MLOAD DUP1 SWAP2 SUB SWAP1 LOG2 POP JUMP JUMPDEST PUSH0 DUP1 PUSH0 DUP4 PUSH20 0xFFFFFFFFFFFFFFFFFFFFFFFFFFFFFFFFFFFFFFFF AND PUSH20 0xFFFFFFFFFFFFFFFFFFFFFFFFFFFFFFFFFFFFFFFF AND DUP2 MSTORE PUSH1 0x20 ADD SWAP1 DUP2 MSTORE PUSH1 0x20 ADD PUSH0 KECCAK256 PUSH1 0x2 ADD PUSH0 SWAP1 SLOAD SWAP1 PUSH2 0x100 EXP SWAP1 DIV PUSH1 0xFF AND ISZERO SWAP1 POP SWAP2 SWAP1 POP JUMP JUMPDEST PUSH1 0x60 PUSH0 DUP1 PUSH0 DUP5 PUSH20 0xFFFFFFFFFFFFFFFFFFFFFFFFFFFFFFFFFFFFFFFF AND PUSH20 0xFFFFFFFFFFFFFFFFFFFFFFFFFFFFFFFFFFFFFFFF AND DUP2 MSTORE PUSH1 0x20 ADD SWAP1 DUP2 MSTORE PUSH1 0x20 ADD PUSH0 KECCAK256 PUSH0 ADD PUSH0 DUP1 DUP6 PUSH20 0xFFFFFFFFFFFFFFFFFFFFFFFFFFFFFFFFFFFFFFFF AND PUSH20 0xFFFFFFFFFFFFFFFFFFFFFFFFFFFFFFFFFFFFFFFF AND DUP2 MSTORE PUSH1 0x20 ADD SWAP1 DUP2 MSTORE PUSH1 0x20 ADD PUSH0 KECCAK256 PUSH1 0x2 ADD PUSH0 SWAP1 SLOAD SWAP1 PUSH2 0x100 EXP SWAP1 DIV PUSH1 0xFF AND DUP2 DUP1 SLOAD PUSH2 0x477 SWAP1 PUSH2 0x981 JUMP JUMPDEST DUP1 PUSH1 0x1F ADD PUSH1 0x20 DUP1 SWAP2 DIV MUL PUSH1 0x20 ADD PUSH1 0x40 MLOAD SWAP1 DUP2 ADD PUSH1 0x40 MSTORE DUP1 SWAP3 SWAP2 SWAP1 DUP2 DUP2 MSTORE PUSH1 0x20 ADD DUP3 DUP1 SLOAD PUSH2 0x4A3 SWAP1 PUSH2 0x981 JUMP JUMPDEST DUP1 ISZERO PUSH2 0x4EE JUMPI DUP1 PUSH1 0x1F LT PUSH2 0x4C5 JUMPI PUSH2 0x100 DUP1 DUP4 SLOAD DIV MUL DUP4 MSTORE SWAP2 PUSH1 0x20 ADD SWAP2 PUSH2 0x4EE JUMP JUMPDEST DUP3 ADD SWAP2 SWAP1 PUSH0 MSTORE PUSH1 0x20 PUSH0 KECCAK256 SWAP1 JUMPDEST DUP2 SLOAD DUP2 MSTORE SWAP1 PUSH1 0x1 ADD SWAP1 PUSH1 0x20 ADD DUP1 DUP4 GT PUSH2 0x4D1 JUMPI DUP3 SWAP1 SUB PUSH1 0x1F AND DUP3 ADD SWAP2 JUMPDEST POP POP POP POP POP SWAP2 POP SWAP2 POP SWAP2 POP SWAP2 POP SWAP2 JUMP JUMPDEST PUSH1 0x40 MLOAD DUP1 PUSH1 0x60 ADD PUSH1 0x40 MSTORE DUP1 DUP4 DUP2 MSTORE PUSH1 0x20 ADD DUP3 DUP2 MSTORE PUSH1 0x20 ADD PUSH0 ISZERO ISZERO DUP2 MSTORE POP PUSH0 DUP1 DUP6 PUSH20 0xFFFFFFFFFFFFFFFFFFFFFFFFFFFFFFFFFFFFFFFF AND PUSH20 0xFFFFFFFFFFFFFFFFFFFFFFFFFFFFFFFFFFFFFFFF AND DUP2 MSTORE PUSH1 0x20 ADD SWAP1 DUP2 MSTORE PUSH1 0x20 ADD PUSH0 KECCAK256 PUSH0 DUP3 ADD MLOAD DUP2 PUSH0 ADD SWAP1 DUP2 PUSH2 0x56A SWAP2 SWAP1 PUSH2 0xBBF JUMP JUMPDEST POP PUSH1 0x20 DUP3 ADD MLOAD DUP2 PUSH1 0x1 ADD SWAP1 DUP2 PUSH2 0x580 SWAP2 SWAP1 PUSH2 0xBBF JUMP JUMPDEST POP PUSH1 0x40 DUP3 ADD MLOAD DUP2 PUSH1 0x2 ADD PUSH0 PUSH2 0x100 EXP DUP2 SLOAD DUP2 PUSH1 0xFF MUL NOT AND SWAP1 DUP4 ISZERO ISZERO MUL OR SWAP1 SSTORE POP SWAP1 POP POP DUP3 PUSH20 0xFFFFFFFFFFFFFFFFFFFFFFFFFFFFFFFFFFFFFFFF AND PUSH32 0x4514A45E6F56567008E790FE2158E66D34E8B8254C060AD061D5702748791479 DUP4 PUSH1 0x40 MLOAD PUSH2 0x5E9 SWAP2 SWAP1 PUSH2 0xC8E JUMP JUMPDEST PUSH1 0x40 MLOAD DUP1 SWAP2 SUB SWAP1 LOG2 POP POP POP JUMP JUMPDEST PUSH0 PUSH1 0x40 MLOAD SWAP1 POP SWAP1 JUMP JUMPDEST PUSH0 DUP1 REVERT JUMPDEST PUSH0 DUP1 REVERT JUMPDEST PUSH0 PUSH20 0xFFFFFFFFFFFFFFFFFFFFFFFFFFFFFFFFFFFFFFFF DUP3 AND SWAP1 POP SWAP2 SWAP1 POP JUMP JUMPDEST PUSH0 PUSH2 0x630 DUP3 PUSH2 0x607 JUMP JUMPDEST SWAP1 POP SWAP2 SWAP1 POP JUMP JUMPDEST PUSH2 0x640 DUP2 PUSH2 0x626 JUMP JUMPDEST DUP2 EQ PUSH2 0x64A JUMPI PUSH0 DUP1 REVERT JUMPDEST POP JUMP JUMPDEST PUSH0 DUP2 CALLDATALOAD SWAP1 POP PUSH2 0x65B DUP2 PUSH2 0x637 JUMP JUMPDEST SWAP3 SWAP2 POP POP JUMP JUMPDEST PUSH0 PUSH1 0x20 DUP3 DUP5 SUB SLT ISZERO PUSH2 0x676 JUMPI PUSH2 0x675 PUSH2 0x5FF JUMP JUMPDEST JUMPDEST PUSH0 PUSH2 0x683 DUP5 DUP3 DUP6 ADD PUSH2 0x64D JUMP JUMPDEST SWAP2 POP POP SWAP3 SWAP2 POP POP JUMP JUMPDEST PUSH0 DUP2 MLOAD SWAP1 POP SWAP2 SWAP1 POP JUMP JUMPDEST PUSH0 DUP3 DUP3 MSTORE PUSH1 0x20 DUP3 ADD SWAP1 POP SWAP3 SWAP2 POP POP JUMP JUMPDEST DUP3 DUP2 DUP4 MCOPY PUSH0 DUP4 DUP4 ADD MSTORE POP POP POP JUMP JUMPDEST PUSH0 PUSH1 0x1F NOT PUSH1 0x1F DUP4 ADD AND SWAP1 POP SWAP2 SWAP1 POP JUMP JUMPDEST PUSH0 PUSH2 0x6CE DUP3 PUSH2 0x68C JUMP JUMPDEST PUSH2 0x6D8 DUP2 DUP6 PUSH2 0x696 JUMP JUMPDEST SWAP4 POP PUSH2 0x6E8 DUP2 DUP6 PUSH1 0x20 DUP7 ADD PUSH2 0x6A6 JUMP JUMPDEST PUSH2 0x6F1 DUP2 PUSH2 0x6B4 JUMP JUMPDEST DUP5 ADD SWAP2 POP POP SWAP3 SWAP2 POP POP JUMP JUMPDEST PUSH0 DUP2 ISZERO ISZERO SWAP1 POP SWAP2 SWAP1 POP JUMP JUMPDEST PUSH2 0x710 DUP2 PUSH2 0x6FC JUMP JUMPDEST DUP3 MSTORE POP POP JUMP JUMPDEST PUSH0 PUSH1 0x60 DUP3 ADD SWAP1 POP DUP2 DUP2 SUB PUSH0 DUP4 ADD MSTORE PUSH2 0x72E DUP2 DUP7 PUSH2 0x6C4 JUMP JUMPDEST SWAP1 POP DUP2 DUP2 SUB PUSH1 0x20 DUP4 ADD MSTORE PUSH2 0x742 DUP2 DUP6 PUSH2 0x6C4 JUMP JUMPDEST SWAP1 POP PUSH2 0x751 PUSH1 0x40 DUP4 ADD DUP5 PUSH2 0x707 JUMP JUMPDEST SWAP5 SWAP4 POP POP POP POP JUMP JUMPDEST PUSH0 PUSH1 0x20 DUP3 ADD SWAP1 POP PUSH2 0x76C PUSH0 DUP4 ADD DUP5 PUSH2 0x707 JUMP JUMPDEST SWAP3 SWAP2 POP POP JUMP JUMPDEST PUSH0 PUSH1 0x40 DUP3 ADD SWAP1 POP DUP2 DUP2 SUB PUSH0 DUP4 ADD MSTORE PUSH2 0x78A DUP2 DUP6 PUSH2 0x6C4 JUMP JUMPDEST SWAP1 POP PUSH2 0x799 PUSH1 0x20 DUP4 ADD DUP5 PUSH2 0x707 JUMP JUMPDEST SWAP4 SWAP3 POP POP POP JUMP JUMPDEST PUSH0 DUP1 REVERT JUMPDEST PUSH0 DUP1 REVERT JUMPDEST PUSH32 0x4E487B7100000000000000000000000000000000000000000000000000000000 PUSH0 MSTORE PUSH1 0x41 PUSH1 0x4 MSTORE PUSH1 0x24 PUSH0 REVERT JUMPDEST PUSH2 0x7DE DUP3 PUSH2 0x6B4 JUMP JUMPDEST DUP2 ADD DUP2 DUP2 LT PUSH8 0xFFFFFFFFFFFFFFFF DUP3 GT OR ISZERO PUSH2 0x7FD JUMPI PUSH2 0x7FC PUSH2 0x7A8 JUMP JUMPDEST JUMPDEST DUP1 PUSH1 0x40 MSTORE POP POP POP JUMP JUMPDEST PUSH0 PUSH2 0x80F PUSH2 0x5F6 JUMP JUMPDEST SWAP1 POP PUSH2 0x81B DUP3 DUP3 PUSH2 0x7D5 JUMP JUMPDEST SWAP2 SWAP1 POP JUMP JUMPDEST PUSH0 PUSH8 0xFFFFFFFFFFFFFFFF DUP3 GT ISZERO PUSH2 0x83A JUMPI PUSH2 0x839 PUSH2 0x7A8 JUMP JUMPDEST JUMPDEST PUSH2 0x843 DUP3 PUSH2 0x6B4 JUMP JUMPDEST SWAP1 POP PUSH1 0x20 DUP2 ADD SWAP1 POP SWAP2 SWAP1 POP JUMP JUMPDEST DUP3 DUP2 DUP4 CALLDATACOPY PUSH0 DUP4 DUP4 ADD MSTORE POP POP POP JUMP JUMPDEST PUSH0 PUSH2 0x870 PUSH2 0x86B DUP5 PUSH2 0x820 JUMP JUMPDEST PUSH2 0x806 JUMP JUMPDEST SWAP1 POP DUP3 DUP2 MSTORE PUSH1 0x20 DUP2 ADD DUP5 DUP5 DUP5 ADD GT ISZERO PUSH2 0x88C JUMPI PUSH2 0x88B PUSH2 0x7A4 JUMP JUMPDEST JUMPDEST PUSH2 0x897 DUP5 DUP3 DUP6 PUSH2 0x850 JUMP JUMPDEST POP SWAP4 SWAP3 POP POP POP JUMP JUMPDEST PUSH0 DUP3 PUSH1 0x1F DUP4 ADD SLT PUSH2 0x8B3 JUMPI PUSH2 0x8B2 PUSH2 0x7A0 JUMP JUMPDEST JUMPDEST DUP2 CALLDATALOAD PUSH2 0x8C3 DUP5 DUP3 PUSH1 0x20 DUP7 ADD PUSH2 0x85E JUMP JUMPDEST SWAP2 POP POP SWAP3 SWAP2 POP POP JUMP JUMPDEST PUSH0 DUP1 PUSH0 PUSH1 0x60 DUP5 DUP7 SUB SLT ISZERO PUSH2 0x8E3 JUMPI PUSH2 0x8E2 PUSH2 0x5FF JUMP JUMPDEST JUMPDEST PUSH0 PUSH2 0x8F0 DUP7 DUP3 DUP8 ADD PUSH2 0x64D JUMP JUMPDEST SWAP4 POP POP PUSH1 0x20 DUP5 ADD CALLDATALOAD PUSH8 0xFFFFFFFFFFFFFFFF DUP2 GT ISZERO PUSH2 0x911 JUMPI PUSH2 0x910 PUSH2 0x603 JUMP JUMPDEST JUMPDEST PUSH2 0x91D DUP7 DUP3 DUP8 ADD PUSH2 0x89F JUMP JUMPDEST SWAP3 POP POP PUSH1 0x40 DUP5 ADD CALLDATALOAD PUSH8 0xFFFFFFFFFFFFFFFF DUP2 GT ISZERO PUSH2 0x93E JUMPI PUSH2 0x93D PUSH2 0x603 JUMP JUMPDEST JUMPDEST PUSH2 0x94A DUP7 DUP3 DUP8 ADD PUSH2 0x89F JUMP JUMPDEST SWAP2 POP POP SWAP3 POP SWAP3 POP SWAP3 JUMP JUMPDEST PUSH32 0x4E487B7100000000000000000000000000000000000000000000000000000000 PUSH0 MSTORE PUSH1 0x22 PUSH1 0x4 MSTORE PUSH1 0x24 PUSH0 REVERT JUMPDEST PUSH0 PUSH1 0x2 DUP3 DIV SWAP1 POP PUSH1 0x1 DUP3 AND DUP1 PUSH2 0x998 JUMPI PUSH1 0x7F DUP3 AND SWAP2 POP JUMPDEST PUSH1 0x20 DUP3 LT DUP2 SUB PUSH2 0x9AB JUMPI PUSH2 0x9AA PUSH2 0x954 JUMP JUMPDEST JUMPDEST POP SWAP2 SWAP1 POP JUMP JUMPDEST PUSH32 0x436572746966696361746520616C7265616479207265766F6B65640000000000 PUSH0 DUP3 ADD MSTORE POP JUMP JUMPDEST PUSH0 PUSH2 0x9E5 PUSH1 0x1B DUP4 PUSH2 0x696 JUMP JUMPDEST SWAP2 POP PUSH2 0x9F0 DUP3 PUSH2 0x9B1 JUMP JUMPDEST PUSH1 0x20 DUP3 ADD SWAP1 POP SWAP2 SWAP1 POP JUMP JUMPDEST PUSH0 PUSH1 0x20 DUP3 ADD SWAP1 POP DUP2 DUP2 SUB PUSH0 DUP4 ADD MSTORE PUSH2 0xA12 DUP2 PUSH2 0x9D9 JUMP JUMPDEST SWAP1 POP SWAP2 SWAP1 POP JUMP JUMPDEST PUSH0 DUP2 SWAP1 POP DUP2 PUSH0 MSTORE PUSH1 0x20 PUSH0 KECCAK256 SWAP1 POP SWAP2 SWAP1 POP JUMP JUMPDEST PUSH0 PUSH1 0x20 PUSH1 0x1F DUP4 ADD DIV SWAP1 POP SWAP2 SWAP1 POP JUMP JUMPDEST PUSH0 DUP3 DUP3 SHL SWAP1 POP SWAP3 SWAP2 POP POP JUMP JUMPDEST PUSH0 PUSH1 0x8 DUP4 MUL PUSH2 0xA75 PUSH32 0xFFFFFFFFFFFFFFFFFFFFFFFFFFFFFFFFFFFFFFFFFFFFFFFFFFFFFFFFFFFFFFFF DUP3 PUSH2 0xA3A JUMP JUMPDEST PUSH2 0xA7F DUP7 DUP4 PUSH2 0xA3A JUMP JUMPDEST SWAP6 POP DUP1 NOT DUP5 AND SWAP4 POP DUP1 DUP7 AND DUP5 OR SWAP3 POP POP POP SWAP4 SWAP3 POP POP POP JUMP JUMPDEST PUSH0 DUP2 SWAP1 POP SWAP2 SWAP1 POP JUMP JUMPDEST PUSH0 DUP2 SWAP1 POP SWAP2 SWAP1 POP JUMP JUMPDEST PUSH0 PUSH2 0xAC3 PUSH2 0xABE PUSH2 0xAB9 DUP5 PUSH2 0xA97 JUMP JUMPDEST PUSH2 0xAA0 JUMP JUMPDEST PUSH2 0xA97 JUMP JUMPDEST SWAP1 POP SWAP2 SWAP1 POP JUMP JUMPDEST PUSH0 DUP2 SWAP1 POP SWAP2 SWAP1 POP JUMP JUMPDEST PUSH2 0xADC DUP4 PUSH2 0xAA9 JUMP JUMPDEST PUSH2 0xAF0 PUSH2 0xAE8 DUP3 PUSH2 0xACA JUMP JUMPDEST DUP5 DUP5 SLOAD PUSH2 0xA46 JUMP JUMPDEST DUP3 SSTORE POP POP POP POP JUMP JUMPDEST PUSH0 SWAP1 JUMP JUMPDEST PUSH2 0xB04 PUSH2 0xAF8 JUMP JUMPDEST PUSH2 0xB0F DUP2 DUP5 DUP5 PUSH2 0xAD3 JUMP JUMPDEST POP POP POP JUMP JUMPDEST JUMPDEST DUP2 DUP2 LT ISZERO PUSH2 0xB32 JUMPI PUSH2 0xB27 PUSH0 DUP3 PUSH2 0xAFC JUMP JUMPDEST PUSH1 0x1 DUP2 ADD SWAP1 POP PUSH2 0xB15 JUMP JUMPDEST POP POP JUMP JUMPDEST PUSH1 0x1F DUP3 GT ISZERO PUSH2 0xB77 JUMPI PUSH2 0xB48 DUP2 PUSH2 0xA19 JUMP JUMPDEST PUSH2 0xB51 DUP5 PUSH2 0xA2B JUMP JUMPDEST DUP2 ADD PUSH1 0x20 DUP6 LT ISZERO PUSH2 0xB60 JUMPI DUP2 SWAP1 POP JUMPDEST PUSH2 0xB74 PUSH2 0xB6C DUP6 PUSH2 0xA2B JUMP JUMPDEST DUP4 ADD DUP3 PUSH2 0xB14 JUMP JUMPDEST POP POP JUMPDEST POP POP POP JUMP JUMPDEST PUSH0 DUP3 DUP3 SHR SWAP1 POP SWAP3 SWAP2 POP POP JUMP JUMPDEST PUSH0 PUSH2 0xB97 PUSH0 NOT DUP5 PUSH1 0x8 MUL PUSH2 0xB7C JUMP JUMPDEST NOT DUP1 DUP4 AND SWAP2 POP POP SWAP3 SWAP2 POP POP JUMP JUMPDEST PUSH0 PUSH2 0xBAF DUP4 DUP4 PUSH2 0xB88 JUMP JUMPDEST SWAP2 POP DUP3 PUSH1 0x2 MUL DUP3 OR SWAP1 POP SWAP3 SWAP2 POP POP JUMP JUMPDEST PUSH2 0xBC8 DUP3 PUSH2 0x68C JUMP JUMPDEST PUSH8 0xFFFFFFFFFFFFFFFF DUP2 GT ISZERO PUSH2 0xBE1 JUMPI PUSH2 0xBE0 PUSH2 0x7A8 JUMP JUMPDEST JUMPDEST PUSH2 0xBEB DUP3 SLOAD PUSH2 0x981 JUMP JUMPDEST PUSH2 0xBF6 DUP3 DUP3 DUP6 PUSH2 0xB36 JUMP JUMPDEST PUSH0 PUSH1 0x20 SWAP1 POP PUSH1 0x1F DUP4 GT PUSH1 0x1 DUP2 EQ PUSH2 0xC27 JUMPI PUSH0 DUP5 ISZERO PUSH2 0xC15 JUMPI DUP3 DUP8 ADD MLOAD SWAP1 POP JUMPDEST PUSH2 0xC1F DUP6 DUP3 PUSH2 0xBA4 JUMP JUMPDEST DUP7 SSTORE POP PUSH2 0xC86 JUMP JUMPDEST PUSH1 0x1F NOT DUP5 AND PUSH2 0xC35 DUP7 PUSH2 0xA19 JUMP JUMPDEST PUSH0 JUMPDEST DUP3 DUP2 LT ISZERO PUSH2 0xC5C JUMPI DUP5 DUP10 ADD MLOAD DUP3 SSTORE PUSH1 0x1 DUP3 ADD SWAP2 POP PUSH1 0x20 DUP6 ADD SWAP5 POP PUSH1 0x20 DUP2 ADD SWAP1 POP PUSH2 0xC37 JUMP JUMPDEST DUP7 DUP4 LT ISZERO PUSH2 0xC79 JUMPI DUP5 DUP10 ADD MLOAD PUSH2 0xC75 PUSH1 0x1F DUP10 AND DUP3 PUSH2 0xB88 JUMP JUMPDEST DUP4 SSTORE POP JUMPDEST PUSH1 0x1 PUSH1 0x2 DUP9 MUL ADD DUP9 SSTORE POP POP POP JUMPDEST POP POP POP POP POP POP JUMP JUMPDEST PUSH0 PUSH1 0x20 DUP3 ADD SWAP1 POP DUP2 DUP2 SUB PUSH0 DUP4 ADD MSTORE PUSH2 0xCA6 DUP2 DUP5 PUSH2 0x6C4 JUMP JUMPDEST SWAP1 POP SWAP3 SWAP2 POP POP JUMP INVALID LOG2 PUSH5 0x6970667358 0x22 SLT KECCAK256 PUSH6 0x993C07BEA428 LOG0 BLOCKHASH BLOCKHASH SHR DUP14 SWAP3 DUP14 DUP15 EQ 0xCC NUMBER DUP3 0xAD SWAP1 SWAP7 0xE0 CALLVALUE ADDRESS PUSH9 0xC7BF53FBEDA164736F PUSH13 0x634300081A0033000000000000 "
				},
				"gasEstimates": {
					"creation": {
						"codeDepositCost": "660000",
						"executionCost": "694",
						"totalCost": "660694"
					},
					"external": {
						"certificates(address)": "infinite",
						"getCertificateData(address)": "infinite",
						"issueCertificate(address,string,string)": "infinite",
						"revokeCertificate(address)": "28219",
						"verifyCertificate(address)": "2901"
					}
				},
				"methodIdentifiers": {
					"certificates(address)": "0016e526",
					"getCertificateData(address)": "c3be3ce1",
					"issueCertificate(address,string,string)": "e98ac4d8",
					"revokeCertificate(address)": "5f893bfa",
					"verifyCertificate(address)": "6b9afc90"
				}
			},
			"storageLayout": {
				"storage": [
					{
						"astId": 13,
						"contract": "smart_cert.sol:CertificateAuthority",
						"label": "certificates",
						"offset": 0,
						"slot": "0",
						"type": "t_mapping(t_address,t_struct(Certificate)8_storage)"
					}
				],
				"types": {
					"t_address": {
						"encoding": "inplace",
						"label": "address",
						"numberOfBytes": "20"
					},
					"t_bool": {
						"encoding": "inplace",
						"label": "bool",
						"numberOfBytes": "1"
					},
					"t_mapping(t_address,t_struct(Certificate)8_storage)": {
						"encoding": "mapping",
						"key": "t_address",
						"label": "mapping(address => struct CertificateAuthority.Certificate)",
						"numberOfBytes": "32",
						"value": "t_struct(Certificate)8_storage"
					},
					"t_string_storage": {
						"encoding": "bytes",
						"label": "string",
						"numberOfBytes": "32"
					},
					"t_struct(Certificate)8_storage": {
						"encoding": "inplace",
						"label": "struct CertificateAuthority.Certificate",
						"members": [
							{
								"astId": 3,
								"contract": "smart_cert.sol:CertificateAuthority",
								"label": "certHash",
								"offset": 0,
								"slot": "0",
								"type": "t_string_storage"
							},
							{
								"astId": 5,
								"contract": "smart_cert.sol:CertificateAuthority",
								"label": "certPem",
								"offset": 0,
								"slot": "1",
								"type": "t_string_storage"
							},
							{
								"astId": 7,
								"contract": "smart_cert.sol:CertificateAuthority",
								"label": "isRevoked",
								"offset": 0,
								"slot": "2",
								"type": "t_bool"
							}
						],
						"numberOfBytes": "96"
					}
				}
			},
			"userdoc": {
				"kind": "user",
				"methods": {},
				"version": 1
			}
		}
	}
}